:100000000C9437040C947E040C947E040C947E04AF
:100010000C947E040C947E040C947E040C947E0458
:100020000C947E040C947E040C9451290C94232A85
:100030000C946E200C947E040C947E040C947E042C
:100040000C947E040C947E040C947E040C947E0428
:100050000C947E040C94D6200C947E040C947E04A4
:100060000C947E040C947E040C947E040C947E0408
:100070000C947E040C947E040C947E040C947E04F8
:100080000C947E040C947E040C947E040C947E04E8
:100090000C947E040C947E040C947E040C947E04D8
:1000A0000C947E040C947E040C947E048F049404BF
:1000B0009B04C004A004A204B504E204E904EF0414
:1000C000F604FF040D0516051F05FF0501060C06C5
:1000D00003060506070609060B060E06100612069D
:1000E0001D061406160618061A061C061F069D167F
:1000F0009D16D716D71616173617A918A9187817E8
:10010000A918281828189B18A918A918A318351871
:100110003518351835183518351835183518351877
:100120003518351835183518351835183518471855
:1001300055185C1863186D183C193C194E194E1966
:1001400045194E194E194E193C193C194A194E19A8
:100150004E194A19902AB72AA92BB72AA92B032B83
:10016000262BA92B7C2B8B2B07634236B79BD8A75A
:100170001A39685618AEBAAB558C1D3CB7CC5763CC
:10018000BD6DEDFD753EF6177231BF000000803F7A
:1001900005A84CCDB2D44EB93836A9020C50B9914D
:1001A0008688083CA6AAAA2ABE000000803F02E179
:1001B000012803E10002E6646503E60002E101288C
:1001C00003E10002E6636403E60002E1012803E1C3
:1001D0000002E6626303E60002E1012803E1000297
:1001E000E6616203E60001280002E672657303E639
:1001F0000001280002E66C6603E6003A6B336E7578
:10020000743A004F62656C69736B32363721002B8C
:100210000014001A000800150017001C0018000C3C
:1002200000120013002A00E0000400160007000975
:10023000000A000B000D000E000F0033003400E137
:10024000001D001B000600190005001100100036FB
:10025000003700380028002900E300E200E000D663
:100260005C2C002C00D75C5000510052004F002B3A
:100270000014001A00090013000A000D000F0018F6
:10028000001C0033002A0029000400150016001786
:100290000007000B00110008000C0012003400E100
:1002A000001D001B000600190005000E001000369E
:1002B00000370038002800D85CE000E200E300D6F8
:1002C0005C2C002C00D75C5000510052004F002BDA
:1002D0000034003600370013001C0009000A000635
:1002E0000015000F002A0029000400120008001861
:1002F000000C0007000B001700110016003800E189
:1003000000330014000D000E001B00050010001A41
:100310000019001D002800D85CE000E200E300D6D0
:100320005C2C002C00D75C5000510052004F00356F
:10033000021E021F022002210222022302240225A1
:1003400002260227024C0046003A003B003C003DDA
:10035000003E003F002D022E022F0230023102012A
:100360000040004100420043004400450032026466
:10037000024A004D00AE00A800010001000100018A
:1003800000010001000100AC00AA00A900AB00358B
:10039000001E001F00200021002200230024002551
:1003A00000260027004C0046003A003B003C003D80
:1003B000003E003F002D002E002F003000310001D4
:1003C0000040004100420043004400450032006408
:1003D000004B004E00AE00A800010001000100012A
:1003E00000010001000100AC00AA00A900AB001E42
:1003F000001E001E001E001E001E001E001E001E0D
:10040000001E001E001E00000014001A0008001547
:100410000017001C0018000C00120013002F000031
:100420000004001600070009000A000B000D000E72
:10043000000F0033003400D95C00000000060019F2
:10044000000000000011001000000000000000DAB1
:100450005CDD5CDE5CDF5CE05C0100010001000152
:1004600000010001004C0001000100010001000139
:100470000001000100D25CD35CD45CD55C010001BA
:100480000001000100010001000100010001000164
:1004900000010001000100DC5CDB5CBB5CBA5C01BC
:1004A00000010001000100BE5CC25CC15CBD5C00DB
:1004B000000000000000002A2B28000000000000BF
:1004C0000000000000000000000029000000002CD7
:1004D0001E3420212224342627252E362D37382776
:1004E0001E1F202122232425263333362E37381F82
:1004F0000405060708090A0B0C0D0E0F1011121344
:100500001415161718191A1B1C1D2F3130232D35E1
:100510000405060708090A0B0C0D0E0F1011121323
:100520001415161718191A1B1C1D2F3130354C00C5
:1005300000000000000000000000000000000000BB
:1005400000000000000000000000000000000000AB
:100550000101010101010001010101000000000091
:100560000000000000000000000100010001010186
:10057000010101010101010101010101010101016B
:10058000010101010101010101010000000101005F
:10059000000000000000000000000000000000005B
:1005A00000000000000000000000010101010068DF
:1005B00001F000B40078005A007F3F1F64321464D9
:1005C0003214783C1E1E140A0500000000000101D0
:1005D0000101010101010102020202020202020202
:1005E00003030303030303030404040404040505D1
:1005F0000505050606060606070707070808080892
:100600000909090A0A0A0A0B0B0B0C0C0C0D0D0D3B
:100610000E0E0F0F0F1010111111121213131414CC
:10062000151516161717181819191A1A1B1C1C1D40
:100630001D1E1F1F20202122222324252526272797
:1006400028292A2B2B2C2D2E2F2F303132333435C5
:1006500036363738393A3B3C3D3E3F4041424344D1
:10066000464748494A4B4C4D4F50515253555657A7
:10067000585A5B5C5E5F606263646667696A6C6D52
:100680006E707173747678797B7C7E8081838486CA
:10069000888A8B8D8F91929496989A9B9D9FA1A307
:1006A000A5A7A9ABADAFB1B3B5B7B9BBBDBFC1C409
:1006B000C6C8CACCCFD1D3D6D8DADCDFE1E4E6E8CD
:1006C000EBEDF0F2F5F7FAFCFF0403300000000E4A
:1006D0000343006F006E0074007200610000000EA2
:1006E00003430061007200740065006C00000004A8
:1006F00003090409026D00040100A0FA09040000C6
:100700000103010100092111010001224000070538
:10071000810308000A090401000103010200092104
:1007200011010001224D000705820308000A090497
:10073000020001030000000921110100012236001E
:100740000705830308000A090403000103000000F1
:10075000092111010001223900070584032000014D
:100760001201100100000008EDFE606001000102AE
:10077000030105010906A101050719E029E7150094
:1007800025019508750181020508190129059505BE
:10079000750191029501750391010507190029F76B
:1007A0001500250195F875018102C005010980A198
:1007B0000185021601002603001A81002A830075B4
:1007C0001095018100C0050C0901A10185031601E6
:1007D00000269C021A01002A9C02751095018100D6
:1007E000C005010902A1010901A10005091901299A
:1007F0000515002501950575018102950175038197
:10080000010501093009311581257F95027508819F
:100810000609381581257F950175088106050C0AA2
:1008200038021581257F950175088106C0C0050134
:100830000906A101050719E029E71500250195081A
:1008400075018102950175088101050819012905C5
:100850009505750191029501750391010507190030
:1008600029FF150026FF00950675088100C0112498
:100870001FBECFEFDAE0DEBFCDBF04B603FE27C058
:1008800080916C0290916D02A0916E02B0916F0206
:100890008730904BA740B04BD1F410926C0210926D
:1008A0006D0210926E0210926F0214BE84B7877FA1
:1008B00084BF0FB6F894A8958091600088618093FA
:1008C0006000109260000FBEE0E0F8E3099511E0CF
:1008D000A0E0B1E0ECE3FFE502C005900D92AA3381
:1008E000B107D9F722E0AAE3B1E001C01D92AC360E
:1008F000B207E1F70E9476260C949C2F0C9400001E
:10090000CF93FC01E25DFC45EF30F10508F0BBC080
:10091000DB01EA5AFF4F1296CC910C944E2FCC2358
:1009200009F4B2C080E004C0CC2309F4ADC081E07A
:100930000E945F08A6C0CC2309F4A6C082E0F8CFCD
:1009400083E001C084E0CC2341F00E94611D46E0B9
:1009500064E083E00E94730894C00E94821D46E018
:1009600064E083E00E9473088FC085EECC2321F001
:100970000E94FA14769885C00E94F115769A84C078
:10098000CC2309F481C084E00E94821D83E00E9490
:10099000821D86E00E94821D85E00E94611D0E94EA
:1009A000851F811102C00E94641F0E94A21F90E057
:1009B00090935E0280935D02806880935D020E9446
:1009C000A61F5FC0CC2309F45FC085E00E94821D92
:1009D00058C0CC2309F458C083E092E050C0CC2327
:1009E00009F452C045E566E98FEF06C0CC2309F44F
:1009F0004BC04FEF60E087EA0E947D0E42C0CC23DF
:100A000009F442C08BEF91E00E945C0888E20E94EA
:100A1000FA1488E20E94F11534C0CC23A9F184EFC6
:100A200091E00E945C0881EF91E029C0CC2361F144
:100A300089EE91E00E945C0886EE91E020C0CC2314
:100A400019F18FED91E00E945C0888ED91E00E9421
:100A50005C0881ED91E00E945C088AEC91E00E94C4
:100A60005C0883EC91E00E945C088CEB91E00E94B2
:100A70005C0885EB91E00E945C088EEA91E00E94A0
:100A80005C08C0E001C0C1E08C2FCF91089584E0E4
:100A90000C94D20C81E008950C9480040E942A19D1
:100AA0002FEF84E39CE0215080409040E1F700C0AC
:100AB00000000C94FC20FF920F931F93CF93DF93C1
:100AC0008C01FC01C081D18180918A01811113C008
:100AD0008281882349F0CE010E945A1EF82E682F89
:100AE000CE010E94FF1D04C0CE010E942E1EF82ED2
:100AF000BE018F2D04C0CE010E945A1EBE010E946D
:100B0000CE08EC01B8010E944C05882309F474C298
:100B1000B801CE010E942C0B882309F46DC2B801E4
:100B2000CE010E94AE0C882309F466C2C23CFCE5EB
:100B3000DF0741F4F8018281882309F45DC20E9435
:100B40000D105AC2C33C8CE5D80708F015C1CB3B49
:100B50009CE5D90761F4F8018281882309F44CC22D
:100B60000E942B1F8272E1F00E94AC1045C2CC3B68
:100B7000ECE5DE07C0F0CE3B9CE5D90709F4CDC01B
:100B800008F0DFC0CC3BFCE5DF0709F0CEC0F80180
:100B90008281882309F430C20E942B1F827221F3C4
:100BA0000E94A21029C2C531FCE5DF0708F07EC013
:100BB000C2308CE5D80708F452C0F801828188233E
:100BC00009F459C00E94851F811102C00E94641F50
:100BD0000E94A21F90E090935E0280935D02FE014E
:100BE000E350FC45E231F10530F4EB59FF4F8091C1
:100BF0005D020C944E2F80915D02816027C082605F
:100C000025C0846023C0806121C080621FC08064D1
:100C10001DC080681BC08460886018C08E7F16C0AD
:100C20008D7F14C08B7F12C08F7E10C08F7D0EC051
:100C30008F7B0CC08F770AC08B7F877F07C087FBB5
:100C4000222720F991E0922790FB87F980935D029B
:100C500080915D020E94A61F0E942A19CDC1C11574
:100C60009CE5D90781F0C130DC45A9F081E0809393
:100C70003F0180934001C801DF91CF911F910F91F7
:100C8000FF900C944A05F8018281882309F4B4C1CD
:100C90000E944E05B1C1F8018281882309F4ACC1DC
:100CA00080910E02816080930E02A6C1C531FCE5E1
:100CB000DF0739F50E942B1F282FF8018281409110
:100CC000020150910301882379F02A7A91E009F416
:100CD00090E090933A01911102C069E201C065E38E
:100CE000CA010E9407200AC080913A01811102C006
:100CF00069E201C065E3CA010E9412200E94F81E49
:100D00007BC1CA3BDC4509F0B1CFF8018281882361
:100D100009F472C10E94E9106FC1F8018281882331
:100D200009F46AC10E949E0F67C1CD3BDC4509F002
:100D30009DCFF8018281882309F45EC10E94860F4D
:100D40005BC1F8018281C03CFCE5DF0731F48823F8
:100D500009F452C10E94D80F4FC1C13CDC4530F4A8
:100D6000882309F449C10E94BD0F46C1882309F4B4
:100D700043C10E94F20F40C1C93CECE5DE0749F4D3
:100D8000F8018281882309F437C188E10E94271085
:100D900033C1CA3CFCE5DF0708F088C0C53C8CE5E0
:100DA000D807B1F4F8018281882309F425C10E9493
:100DB000580E663071058105910540F00E94580E6D
:100DC000683071058105910508F4EACE86E0DECF32
:100DD000C63C9CE5D90728F5C33CECE5DE0739F4B1
:100DE000F8018281882309F407C181E0CFCFC43C98
:100DF000DC4509F03BCFF8018281882309F4FCC06F
:100E00000E94580E623071058105910540F00E94E4
:100E1000580E653071058105910508F4C1CE82E058
:100E2000B5CFF8018281C73CFCE5DF07A1F4882338
:100E300009F4E2C00E94580E6F30710581059105DA
:100E400040F00E94580E643171058105910508F447
:100E5000A7CE8FE09BCFC83CDC45A0F4882309F4E3
:100E6000CBC00E94580E693071058105910540F094
:100E70000E94580E6E3071058105910508F490CEE0
:100E800089E084CF882309F4B7C00E94580E6531E9
:100E900071058105910540F00E94580E673171057A
:100EA0008105910508F47CCE85E170CFCC3CECE562
:100EB000DE0739F5F8018281882361F01092400144
:100EC0000E94A02090933E0180933D0180E20E9409
:100ED000501692C08091400181110FC080913D0158
:100EE00090913E010E94AC20883C910530F487E24D
:100EF0000E94FA1487E20E94F11580E20E945716C0
:100F00007BC0CD3CFCE5DF0708F041C0CA3C8CE566
:100F1000D807B1F4F8018281882309F46DC00E94DA
:100F2000580E693171058105910540F00E94580EF7
:100F3000623271058105910508F432CE89E126CF30
:100F4000CB3CDC4509F092CEF8018281882351F038
:100F500010923F010E94A02090933C0180933B019E
:100F600082E0B5CF80913F0181110FC080913B019C
:100F700090913C010E94AC20883C910530F486E2BF
:100F80000E94FA1486E20E94F11582E0B7CFC03DBC
:100F9000ECE5DE0731F4F8018281882369F180E015
:100FA00009C0C13DFCE5DF0741F4F80182818823D7
:100FB00019F182E00E9414271FC0CD3CDC4509F0E6
:100FC00055CEF8018281811179CF80914001811144
:100FD00094CF80913D0190913E010E94AC20883CCD
:100FE000910508F08ACF80E20E94571688E20E949D
:100FF000FA1488E20E94F11580E0DF91CF911F91F1
:101000000F91FF900895CF93282F30E0F901E1551B
:10101000FB4FC491F901E15DFA4F2491222359F06D
:1010200081EE0E94FA148C2F0E94FA148C2F0E94D9
:10103000F11581EE04C08C2F0E94FA148C2FCF91F1
:101040000C94F1150F931F93CF93DF93EC01062FB0
:10105000FE018491882359F19E012F5F3F4F81301B
:1010600041F4E901F9011491812F0E94FA14812FB2
:101070000DC0823031F4E901F90184910E94FA1423
:101080000AC0833031F4E901F90184910E94F1151D
:1010900002C00E9403082196802F8823C9F2EFE93D
:1010A000FFE03197F1F700C000008150F6CFDF91EB
:1010B000CF911F910F91089560E00C942208CF9377
:1010C000DF9361E070E0EB0102C0CC0FDD1F8A9579
:1010D000E2F78C2F0E949D1FBE0180E090E0DF911F
:1010E000CF910C94001DCF92DF92EF92FF920F935D
:1010F0001F9301E010E020E030E06801790104C0B6
:10110000CC0CDD1CEE1CFF1C8A95D2F704C0000F2E
:10111000111F221F331F6A95D2F70C291D292E2972
:101120003F29C090E101D090E201E090E301F0900E
:10113000E401C022D122E222F322842FC016D1067C
:10114000E206F30641F41F910F91FF90EF90DF90BC
:10115000CF900C94611D1F910F91FF90EF90DF9045
:10116000CF900C94821D0C947B0B0C947E0B282F3B
:101170002F7041F0822F90E02A3010F44D960895A0
:101180000697089587E290E0089508950C94C508A5
:101190000C94C60880E090E0089508959CE0799F43
:1011A000F001112490E3899FE00DF11D1124E60F59
:1011B000F11DEE0FFF1FE15FFD4F859194910895A2
:1011C000880F991FFC01E155FA4F8591949108957C
:1011D000CF93DF930E94CE080E948B0AEC01811509
:1011E00020E59207F0F5811530E4930708F018C167
:1011F000883E910500F5803E910508F088C1883A47
:10120000910570F4853A910508F09AC081309105F6
:1012100009F47DC108F434C1049708F078C130C1E5
:101220008D3B910508F497C0803C910508F428C1D6
:10123000805C9109E7C08115904258F4C11581E0A6
:10124000D80708F064C1C03FD10508F419C1D065C2
:101250005EC1C11590E3D90708F0D8C0CE019F70D8
:10126000D1C0811525E5920708F043C0811534E50A
:10127000930708F0ECC0811542E5940708F5C11505
:1012800081E5D80708F0CFC02C2F237081E090E0D3
:1012900002C0880F991F2A95E2F79C689E0174E0AE
:1012A000369527957A95E1F72370922BCF70C695E6
:1012B000C69530E2C39FE0011124C82BD92B27C16A
:1012C000869586959E0123703327C115D34508F076
:1012D000AFC040E2849FC0011124C1E0D0E002C051
:1012E000CC0FDD1F2A95E2F78C2B9D2BEC01DC68DF
:1012F0000EC1811529E5920778F4811538E5930729
:1013000008F0AAC08115964508F0BAC0CF71DD2754
:10131000DC2FCC27D062FBC0C1158AE5D80708F4C2
:10132000A0C0CE0190568115904208F0A9C08D2F23
:101330008F710E94080BDD27D0628F71D82BE7C018
:10134000853A910509F49FC0863A910509F09EC03F
:10135000C2E8D0E4DCC0883A910509F49AC0893A21
:10136000910509F499C08A3A910509F498C08B3A1D
:10137000910509F497C08C3A910509F496C08B3B0E
:10138000910509F495C08C3B910509F494C08D3A00
:10139000910509F493C0803B910509F492C08E3AFF
:1013A000910509F491C08F3A910509F490C0813BF1
:1013B000910509F48FC0823B910509F48EC0833BEF
:1013C000910509F48DC0843B910509F48CC0853BDF
:1013D000910509F48BC0863B910509F48AC0873BCF
:1013E000910509F489C0883B910509F488C0893BBF
:1013F000910509F487C08A3B910509F486C0C0E0D5
:10140000D4E485C00E94E008EC0181C0CE01992798
:10141000D3FF03C0EC01D86C7AC0EC01D06C77C06C
:10142000DF70D06A74C0DC2FCC27C16FD06A6FC068
:1014300040E2849FC0011124C1E0D0E002C0CC0F83
:10144000DD1F2A95E2F7C82BD92BDA6860C0D82FA8
:10145000CC27C46FD06A5BC0D82FCC27C06FD06AAE
:1014600056C08C2F8F70806E90E0906A24E0D695E5
:10147000C7952A95E1F7CF709C013C2BE90147C045
:10148000C0E0D0E044C0C1E8D0E441C0C3E8D0E44B
:101490003EC0C2EED4E43BC0C9EED4E438C0CAEECC
:1014A000D4E435C0C5EBD4E432C0C6EBD4E42FC0DD
:1014B000C3EBD4E42CC0C4EBD4E429C0C7EBD4E420
:1014C00026C0CCECD4E423C0CDECD4E420C0C3E8E7
:1014D000D5E41DC0CAE8D5E41AC0C2E9D5E417C0F6
:1014E000C4E9D5E414C0C1E2D6E411C0C3E2D6E435
:1014F0000EC0C4E2D6E40BC0C5E2D6E408C0C6E222
:10150000D6E405C0C7E2D6E402C0CAE2D6E4CE0102
:10151000DF91CF9108958238910549F1B0F481337C
:10152000910509F458C048F48932910509F44EC078
:101530008A32910509F454C008958533910509F460
:1015400040C08933910599F00895833E910529F1B2
:1015500038F4803E910591F0823E9105A1F0089506
:10156000863E9105F9F0873E910531F1089520916D
:101570005D0220FD3AC021FD38C0089580915D02D2
:1015800080FD35C032C080915D0282FF32C0809103
:101590005D0284FD30C083EE39C080915D0282FD22
:1015A00028C0F5CF80915D0283FF27C080915D0246
:1015B00084FD21C087EE2AC080915D0283FD1DC09D
:1015C000F5CF80915D0285FD1AC01BC080915D0240
:1015D00085FD17C014C080915D0286FD14C015C042
:1015E00080915D0286FD11C00EC080EE0FC089E3C0
:1015F0000DC082EE0BC080E009C086EE07C089E214
:1016000005C085E303C08AE201C081E390E008954C
:1016100090915D0292FF0DC0282F2871283019F497
:10162000877F846006C0282F2471243011F48B7FBB
:10163000886093FF0DC0282F2871283119F4877E08
:10164000846106C0282F2471243111F48B7E8861B7
:1016500094FD877E089508950F931F93CF93FB0108
:101660002281211102C0C1E041C08C01C0914E0114
:10167000C11125C086319C45B1F70E942B0B81E03A
:1016800080934E010E94A02090934D0180934C01C5
:1016900010924101109243011092420110924501B3
:1016A0001092440110924701109246011092490194
:1016B0001092480110924B0110924A0117C080917C
:1016C0004C0190914D010E94AC20883C910558F648
:1016D00090914101E92FF0E0EE0FFF1FEE5BFE4F0E
:1016E000118300839F5F90934101C0E08C2FCF91C5
:1016F0001F910F9108950C94470508950C947D0B4C
:1017000085B7806885BF85B7806885BFA1E2B1E0F5
:1017100041E050E024E02A0F8D91E82FE295EF7030
:10172000F0E031A18F70BA0102C0660F771F8A9571
:10173000E2F7CB01962F9095932391A392A1892B49
:1017400082A32A13E9CFA5E1B1E041E050E02CE00B
:101750002A0F8D91E82FE295EF70F0E031A18F70A4
:10176000BA0102C0660F771F8A95E2F7CB01962F68
:101770009095932391A392A1892B82A32A13E9CF59
:1017800010925801109257011092500110924F017F
:1017900010925A0110925901109252011092510167
:1017A00010925C0110925B0110925401109253014F
:1017B00010925E0110925D01109256011092550137
:1017C0000C94B3084F925F927F928F929F92AF9248
:1017D000BF92CF92DF92EF92FF920F931F93CF931E
:1017E000DF9321E2E22E21E0F22ECFE4D1E001E00E
:1017F00010E0992493946E01A880B9801982188210
:10180000D7018D917D01E82FE295EF70F0E021A1E5
:101810008F70A80102C0440F551F8A95E2F7CA01D4
:10182000242B21A322A1842E8094282122A350EAD4
:101830005A95F1F795E1492E91E0592E20E030E0DC
:10184000D2017D912D01472F42954F7050E0DA0172
:1018500090967C90488159817F70D80102C0AA0F70
:10186000BB1F7A95E2F7BD01672141F4B801022E52
:1018700002C0660F771F0A94E2F702C060E070E0D2
:10188000462B572B598348832F5F3F4F2C30310510
:10189000B9F691A1892281A292A1892B82A32296D5
:1018A000F60180819181A816B90641F090925F01FE
:1018B0000E94A0209093610180936001F1E0C73500
:1018C000DF0709F098CF80915F01882351F1809163
:1018D0006001909161010E94AC20069710F1809107
:1018E0004F0190915001909358018093570180913E
:1018F00051019091520190935A0180935901809126
:1019000053019091540190935C0180935B0180910D
:1019100055019091560190935E0180935D01109264
:101920005F010E94B50881E0DF91CF911F910F9177
:10193000FF90EF90DF90CF90BF90AF909F908F90EF
:101940007F905F904F900895E82FF0E0EE0FFF1F1B
:10195000E95AFE4F8081918108950895CF93DF93D6
:10196000813020E89207D0F0FB0122812223B1F0E0
:10197000EC0180916201811109C08CE090E00E942D
:10198000542F0E94D20C81E0809362010E94D90CF6
:10199000CE019F770E94A10D0E94550D81E0DF913D
:1019A000CF91089580936301682F8CE090E00C94B0
:1019B000682FE0910201F0910301808180933C0245
:1019C00081FF03C081EE0E94F11580913C0285FFEA
:1019D00003C085EE0E94F11580913C0280FF03C098
:1019E00080EE0E94F11580913C0284FF03C084EEDA
:1019F0000E94F11580913C0282FF03C082EE0E949A
:101A0000F11580913C0286FF03C086EE0E94F1151D
:101A100080913C0283FF03C083EE0E94F115809108
:101A20003C0287FF03C087EE0E94F115809163019D
:101A3000823001F1A8F48823C9F0813079F580EE75
:101A40000E94FA1481EE0E94FA1488E10E94FA14AE
:101A500088E10E94F11581EE0E94F11580EE1CC014
:101A6000843081F08530D1F486EE01C082EE0E9490
:101A7000FA1414C082EE0E94FA1487E50E94FA1448
:101A800087E50AC086EE0E94FA1486EE0E94F115E0
:101A900088E10E94FA1488E10E94F1158FE39CE925
:101AA0000197F1F700C00000089580916301813033
:101AB00049F030F0823021F0853051F486EE06C0D6
:101AC00082EE04C08CE20E94FA148CE20E94F115AE
:101AD00080913C0281FF03C081EE0E94FA14809144
:101AE0003C0285FF03C085EE0E94FA1480913C02FF
:101AF00080FF03C080EE0E94FA1480913C0284FFB4
:101B000003C084EE0E94FA1480913C0282FF03C05D
:101B100082EE0E94FA1480913C0286FF03C086EE9A
:101B20000E94FA1480913C0283FF03C083EE0E945E
:101B3000FA1480913C0287FF03C087EE0C94FA14DC
:101B40000895EF92FF921F93CF93DF937C01CCE037
:101B5000D0E097010C2E02C0369527950A94E2F743
:101B6000122F1F70812F0E94B7080E94FA14812F34
:101B70000E94B7080E94F1152497CC3F8FEFD80739
:101B800041F7DF91CF911F91FF90EF900895EF9271
:101B9000FF920F931F93CF93DF93E901662309F41C
:101BA0004BC0242F30E0EFEFF0E0E61BF109B90164
:101BB000E69F9001E79F300DF69F300D1124232FF3
:101BC0008B01031B11095CE3E52EF12CB7010E9488
:101BD000262FFB01BC01069FC001079F900D169F99
:101BE000900D1124B7010E94262FE230F105B1F0CB
:101BF00040F4309779F0319711F5832F242F461B4D
:101C000021C0E430F105A1F068F03597C1F4842FCC
:101C1000861B18C0832F262F230F14C0862F830FF7
:101C2000E42F03C0E42FE61B842F432F2E2F0AC07E
:101C3000842F462F430F06C0842F242F03C080E03B
:101C400020E040E0E42FF0E0E753FA4F4491E22F28
:101C5000F0E0E753FA4F9491E82FF0E0E753FA4FA2
:101C6000E49149839883EA83DF91CF911F910F918B
:101C7000FF90EF90089588E090E00C945C2FAB010A
:101C8000BC0188E090E00C947A2FEDE3F2E083E071
:101C9000808310923E028FEF8283838360913D02A6
:101CA00070913E0280913F02909140020C943F0E51
:101CB00060913D0260FF06C066956F7370E080E042
:101CC00090E0089560E070E0CB01089580913D02BE
:101CD00080FF06C066E070E085E492E00C949F13FC
:101CE00080E090E0FC01EB5BFD4F118210821282DC
:101CF000039682319105B1F7EDCF90913D0290FFAF
:101D00000FC020E030E0F901EB5BFD4F8183608381
:101D100042832D5F3F4F22313105A9F70C94660EA7
:101D20000895EF92FF920F931F93CF93DF9300D00C
:101D30001F92CDB7DEB700913D0210913E02209177
:101D40003F023091400200934102109342022093DF
:101D500043023093440220913D0220FF21C0042F12
:101D6000F62EE92E182F9E012F5F3F4F0E94C70DC0
:101D70008091410210FB87F9809341021695809172
:101D800042028078182BE0FA17F910934202F09281
:101D90004302009344024B8169818A810E947D0E37
:101DA0000F900F900F90DF91CF911F910F91FF90A7
:101DB000EF9008958F929F92AF92BF92CF92DF9251
:101DC000EF92FF920F931F93CF93DF93EC01062FB7
:101DD000142F80913D0280FF8CC0982F9E77923007
:101DE00021F4CE010E94910E5AC0E82FE695EF73C0
:101DF0009EE39E0F9F73943018F4109140024FC0E1
:101E00009AE39E0F9F73993070F4881F8827881F6C
:101E100090913E02292F220FC22FC82B97FB9927A2
:101E200090F9D92F3CC087E28E0F8F738A30B8F5B6
:101E3000F0E07997E0FD02C021E001C02FEFEE7FD6
:101E4000E155FA4F8591949166E070E00E94262F4B
:101E500026036001279FD00C11244E0188E9881ABF
:101E60008EEF980A85E4E82E82E0F82E98E6A92EF7
:101E7000BB24B394C401B5010E94262F9701412FC2
:101E8000602F0E94C70D8C0C9D1C93E0E90EF11C85
:101E900087E5E81682E0F80669F70E94660E8091F1
:101EA0003D029C2FC0FB87F980933D02969580915F
:101EB0003E028078892BD0FB87F980933E02009305
:101EC0003F021093400260913D0270913E0280916A
:101ED0003F0290914002DF91CF911F910F91FF90AF
:101EE000EF90DF90CF90BF90AF909F908F900C9429
:101EF0003F0EDF91CF911F910F91FF90EF90DF90F8
:101F0000CF90BF90AF909F908F900895EDE3F2E057
:101F10002081221F2227221F30913E02432F440F8F
:101F2000842F822B37FB992790F9419668E671E060
:101F30000E943A2F438162810C94DA0E20913D0277
:101F4000221F2227221F30913E02432F440F842F4D
:101F5000822B37FB992790F9813191051CF4895A1E
:101F60009E4F01C0419768E671E00E943A2F409170
:101F7000400260913F020C94DA0E60913F02862F7E
:101F800090E0883F910514F4685F01C06FEF809185
:101F90003D02881F8827881F90913E02292F220F1B
:101FA00097FB992790F940914002822B0C94DA0E0E
:101FB00060913F02862F90E0089714F0685001C0AE
:101FC00060E080913D02881F8827881F90913E0223
:101FD000292F220F97FB992790F940914002822BDD
:101FE0000C94DA0E40914002842F90E0883F9105D6
:101FF00014F4485F01C04FEF80913D02881F88278D
:10200000881F90913E02292F220F97FB992790F964
:1020100060913F02822B0C94DA0E40914002842F93
:1020200090E0089714F0485001C040E080913D02D4
:10203000881F8827881F90913E02292F220F97FB27
:10204000992790F960913F02822B0C94DA0E9091BF
:102050003D0290FF42C09178811102C0926007C09A
:10206000833210F0946403C08F73880F982B909381
:102070003D0260913D0270913E0280913F0290913D
:1020800040020E943F0E80913D02982F9E77923031
:1020900019F41092790110C0982F96959F732EE332
:1020A000290F2F73273120F491E09093790104C018
:1020B000995D9F739A3068F3881F8827881F9091D5
:1020C0003E02292F220F97FB992790F94091400259
:1020D00060913F02822B0C94DA0E089580910E02DB
:1020E000816080930E0281E080937A010E94851FB7
:1020F000811104C00E94641F0E94450E0E943B0E85
:1021000060933D0270933E0280933F0290934002A1
:102110006E7761F40E94450E0E943B0E60933D0273
:1021200070933E0280933F029093400281E080933F
:10213000790180913D0280FF04C086958F730C94D5
:102140002710089580913D0286958F738F5F8332AB
:1021500008F081E00C94271080913D0286958F73E2
:10216000815009F482E20C942710CF93DF93CDE3E2
:10217000D2E088818160888360913D0270913E0247
:1021800080913F02909140020E943F0E8881869587
:102190008F73DF91CF910C942710EDE3F2E08081F3
:1021A0008E7F808360913D0270913E0280913F025C
:1021B000909140020E943F0E109279012FEF80E72C
:1021C00092E0215080409040E1F700C000000C9464
:1021D000660E80913D0280FD0C94CD100C94B510DC
:1021E000CF93C82F80917701909178010E94AC2005
:1021F000EC2FF0E0EB53FA4FE491F0E08E179F07DD
:1022000008F443C00E94A020909378018093770146
:102210006091760170E080E090E00E94272D20E040
:1022200030E04FE753E40E944A2C2BED3FE049E4B5
:1022300050E40E94502E0E94BD2E0E94C42C2BE41C
:102240003AE34EE25FE30E94DD2B20EF3BEF48EDE7
:1022500052E40E94502E0E94F62C462F80913D029F
:10226000881F8827881F90913E02292F220F97FBF5
:10227000992790F960913F02822B0E94910E8091E4
:10228000760190E0019680937601CF910895CF93E7
:10229000C82F80917401909175010E94AC20EC2FA1
:1022A000F0E0EE53FA4FE491F0E08E179F07E8F06C
:1022B0000E94A02090937501809374014091400288
:1022C00060913F0280917201909173010E94910E82
:1022D0008091720190917301019668E671E00E940D
:1022E000262F9093730180937201CF910895CF921E
:1022F000DF92FF920F931F93CF93DF93F82E80917D
:102300007001909171010E94AC20EF2DE695F0E0F4
:10231000E154FA4FE491F0E08E179F07E8F10E9434
:10232000A020909371018093700105E412E0C0E059
:10233000D0E088E6C82EDD24D39480916E01909180
:102340006F018C0F9D1FB6010E94262F98014091AE
:10235000400260913F020E94C70DEC960D5F1F4F37
:10236000C83681E0D80749F70E94660E20916E01B9
:1023700030916F01F0FE0AC0C9010196BE010E94B2
:10238000262F90936F0180936E0106C02150310972
:1023900030936F0120936E01DF91CF911F910F91C8
:1023A000FF90DF90CF900895AF92BF92CF92DF92CF
:1023B000EF92FF920F931F93CF93DF93C82F80FF6D
:1023C00002C01FEF01C011E080916C0190916D017E
:1023D0000E94AC20C695EC2FF0E0E454FA4FE49153
:1023E000F0E08E179F0708F466C00E94A02090932B
:1023F0006D0180936C0125E4C22E22E0D22E37E4D9
:10240000E32E32E0F32EC0E0D0E0F70131971082E6
:10241000F6011082F701108294E0A92EB12C00E0A1
:1024200080916B01800F87FD8A5F082E000C990B4D
:10243000C817D907E9F4809140028A9DA0018B9DBD
:10244000500D1124559547955595479580913D021E
:10245000881F8827881F90913E02592F550F97FBA0
:10246000992790F9960160913F02852B0E94C70D34
:10247000010FF1E0AF1AB10899F6219683E0C80E7A
:10248000D11CE3E0EE0EF11CC630D10509F0BDCF42
:102490000E94660E80916B01113031F4811102C0EF
:1024A00085E007C0815005C090E00196BE010E9402
:1024B0003A2F80936B01DF91CF911F910F91FF9085
:1024C000EF90DF90CF90BF90AF9008950F931F9340
:1024D000CF93DF93C82F8091690190916A010E9488
:1024E000AC20EC2FF0E0E754FA4FE491F0E08E17C7
:1024F0009F0708F466C00E94A02090936A01809311
:10250000690180E090E0FC01EB5BFD4F11821082DD
:102510001282039682319105B1F7C0E0D0E006E067
:1025200010E0CE01B8010E943A2F40916801042EBC
:10253000000C550BFC01EE0FFF1FC417D5070CF163
:1025400040910101042E000C550B4C175D07CCF097
:102550008E0F9F1F9C012B5B3D4F80913D02881F7A
:102560008827881F90913E02592F550F97FB992776
:1025700090F94091400260913F02852B0E94C70D67
:1025800007C0E80FF91FEB5BFD4F1182108212822A
:102590002196C630D10529F60E94660E8091000171
:1025A00090916801980F9093680120910101280F84
:1025B00020930101121614F495301CF0819580933C
:1025C0000001DF91CF911F910F910895EF92FF923B
:1025D0000F931F93CF93DF938091660190916701D2
:1025E0000E94AC20883E9340D0F10E94A02090939E
:1025F000670180936601C0916401D09165012196C5
:10260000C170DD27D0936501C093640185E4E82E95
:1026100082E0F82E10E008E7812F8695FE01E80F92
:10262000F11DCF018170992797014091400260917F
:102630003F02FC010E9FC0010F9F900D11240E94CC
:10264000C70D1F5FF3E0EF0EF11C163029F7DF9185
:10265000CF911F910F91FF90EF900C94660EDF9138
:10266000CF911F910F91FF90EF9008958091790184
:10267000882391F190913D02892F86958F732EE3E7
:10268000280F2F73243018F482500C94F0102AE392
:10269000280F2F73233018F486500C94471127E32A
:1026A000280F2F73263018F489500C94771121E3EA
:1026B000280F2F73263018F48F500C94D4112BE26E
:1026C000280F2F73233018F485510C9466129E77CF
:1026D000903311F40C94E612089521B3342F309501
:1026E000232331B3432B3FB7F894FC01680F791FC4
:1026F000E617F70789F0819198E041BB000000C020
:1027000087FF21BB880F000000C000C000C021BBB4
:1027100000C09A9591F7ECCF3FBF089520B3242BCA
:1027200020BB9B01220F331F620F731F0E946D138A
:1027300087EC90E00197F1F700C00000089540E8B1
:102740000C948E139093800180937F010895E09103
:102750007F01F0918001309721F00190F081E02D10
:10276000099480E00895E0917F01F0918001309715
:1027700021F00280F381E02D09940895E0917F011A
:10278000F0918001309721F00480F581E02D0994CB
:10279000089520917D0130917E018217930771F099
:1027A00090937E0180937D01E0917F01F091800103
:1027B000309721F00680F781E02D0994089520914B
:1027C0007B0130917C018217930771F090937C011B
:1027D00080937B01E0917F01F0918001309721F09F
:1027E0000084F185E02D0994089508950C94F51363
:1027F00081E008950E9497200E94800B0E946C2126
:102800000E946E10EDE5F2E080818068808308957B
:102810004F925F927F928F929F92AF92BF92CF9290
:10282000DF92EF92FF920F931F93CF93DF93CDB779
:10283000DEB72A970FB6F894DEBF0FBECDBF0E9459
:10284000E20B0E94F813811111C08FEF89838A83F4
:102850001B820E94A0208160782F9D838C834981F8
:102860005A816B818D810E94C61457C092E8C92E8F
:1028700091E0D92E00E010E0AA24A394B12C702E90
:10288000802F0E94A40C4C01F601419051906F01E1
:10289000482659264114510431F40F5F1F4F04306C
:1028A000110569F7D2CF80910E0281FD0E94AD0C17
:1028B00020E030E07501022E02C0EE0CFF1C0A94ED
:1028C000E2F7C70184219521892B09F12E837F82AC
:1028D0008E209F2091E0892809F490E098870E943B
:1028E000A0208160782F9A8789874E815F816885D3
:1028F0008A850E94C614000F111FF801EE57FE4F83
:1029000080819181E826F926F182E08206C02F5F5E
:102910003F4F2C30310571F6C0CF0E940F2410912B
:1029200081010E94A7131817D9F00E94A713809362
:1029300081012A960FB6F894DEBF0FBECDBFDF919E
:10294000CF911F910F91FF90EF90DF90CF90BF90AC
:10295000AF909F908F907F905F904F900C94C8089D
:102960002A960FB6F894DEBF0FBECDBFDF91CF9190
:102970001F910F91FF90EF90DF90CF90BF90AF909D
:102980009F908F907F905F904F900895CF93DF93AB
:10299000CDB7DEB72B970FB6F894DEBF0FBECDBF15
:1029A0004F83588769877A878B87DE01119686E087
:1029B000FD0111928A95E9F785E0FE0137960190B5
:1029C0000D928A95E1F749815A816B817C818D81D5
:1029D0009E810E94D11B2B960FB6F894DEBF0FBECE
:1029E000CDBFDF91CF910895FC01808191810E943C
:1029F000991E0895882309F4F3C0682F8238C1F422
:102A00000E94A71381FDECC069E3809102019091BF
:102A100003010E9407200E94F81E2FEF81EE94E030
:102A2000215080409040E1F700C0000069E319C0E8
:102A30008338F9F40E94A71380FDD2C063E580912A
:102A40000201909103010E9407200E94F81E2FEFBF
:102A500081EE94E0215080409040E1F700C00000FA
:102A600063E580910201909103010E9412200C9471
:102A7000F81E8438C1F40E94A71382FDB1C067E438
:102A800080910201909103010E9407200E94F81E8C
:102A90002FEF81EE94E0215080409040E1F700C09C
:102AA000000067E4DECF8CEF860F813A38F4809126
:102AB0000201909103010E940720D9CF80E2860F86
:102AC000883048F4677081E001C0880F6A95EAF7A2
:102AD0000E942E1FCCCF8BE5860F833070F4653AB1
:102AE00029F0663A31F083E890E005C081E890E093
:102AF00002C082E890E00C94C91388E5860F853106
:102B000008F06EC0683A61F1693A69F16A3A71F1A8
:102B10006B3A79F16C3A81F16B3B89F16C3B91F145
:102B20006D3A99F1603BA1F16E3AA9F16F3AB1F1BA
:102B3000613BB9F1623BC1F1633BC9F1643BD1F147
:102B4000653BD9F1663BE1F1673BE9F1683BF1F1A7
:102B5000693BF9F16A3B09F43FC080E090E03EC078
:102B600082EE90E03BC089EE90E038C08AEE90E0C3
:102B700035C085EB90E032C086EB90E02FC083EB50
:102B800090E02CC084EB90E029C087EB90E026C059
:102B90008CEC90E023C08DEC90E020C083E891E0C5
:102BA0001DC08AE891E01AC082E991E017C084E96B
:102BB00091E014C081E292E011C083E292E00EC085
:102BC00084E292E00BC085E292E008C086E292E0E7
:102BD00005C087E292E002C08AE292E00C94DF1323
:102BE0000895882309F45BC0682F823879F40E9425
:102BF000A71381FF54C069E3809102019091030102
:102C00000E9407200E94F81E69E310C08338B1F4C7
:102C10000E94A71380FF43C063E580910201909159
:102C200003010E9407200E94F81E63E580910201C3
:102C3000909103010E9412200C94F81E843879F4BC
:102C40000E94A71382FF2BC067E48091020190913C
:102C500003010E9407200E94F81E67E4E7CF8CEF73
:102C6000860F813A18F380E2860F883048F4677047
:102C700081E001C0880F6A95EAF70E94341FDCCF1B
:102C80008BE5860F833020F480E090E00C94C9132C
:102C9000685A653120F480E090E00C94DF130895C9
:102CA000882321F00E942E1F0C94F81E089588237B
:102CB00021F00E94341F0C94F81E08954F925F92E9
:102CC0006F927F92AF92BF92CF92DF92EF92FF927C
:102CD0000F931F93CF93DF931F92CDB7DEB77C0185
:102CE000A72EFC01058102950F701281112321F09E
:102CF00069830E944B1F698169830E94F11E69816B
:102D0000882381F0112371F080E2860F883050F023
:102D100082E00E94DA1E0E94F11E91E0B82EB926D0
:102D2000698101C0B12CCA2CC2948FE0C822D12C79
:102D3000F601E958FF4F0C944E2F8A2D807F0A2D03
:102D40000F70882311F00295007F1123C1F000233A
:102D500009F4DCC180E2860F883010F0611105C0F3
:102D6000802F69830E942E1F04C0802F69830E94D8
:102D70003E1F698169830E94F81E6981C7C1862F41
:102D800069830E94F1156981002309F4E2C180E2A0
:102D9000860F883010F0611104C0802F0E94341F0C
:102DA00003C0802F0E94441F0E94F81ED2C18A2DAA
:102DB000807F9A2D9F70803211F4892F03C0892F54
:102DC0008295807F662319F06130B1F01FC0112316
:102DD00049F0002309F452C1013009F04FC10E94AB
:102DE0005E1FB7C1002319F0013009F4B2C1898315
:102DF0000E94611F898148C1112321F0063008F02B
:102E0000A8C13CC1053008F0A4C13EC1112351F056
:102E1000002309F433C1F701958190FF77C19F70BA
:102E200095832CC1002309F42FC181C18A2D869579
:102E30008695837090E0009719F0019761F089C141
:102E4000112321F0862F9A2D937002C080E090E02C
:102E50000E94C9138EC1112321F0862F9A2D9370E1
:102E600002C080E090E00E94DF1383C11123F9F0DB
:102E7000653F51F0663F71F0643FA9F480915702BD
:102E80009091580281600BC0809157029091580236
:102E9000826005C08091570290915802846090939F
:102EA000580280935702862F0E9417231EC0653F49
:102EB00051F0663F71F0643FA9F480915702909100
:102EC00058028E7F0BC080915702909158028D7FDF
:102ED00005C080915702909158028B7F90935802C1
:102EE00080935702862F0E947F230E94042441C1B1
:102EF0008A2D837009F052C0111137C1862F829537
:102F000086958770880F880F962F9F70492E512CB9
:102F1000612C712C082E04C0440C551C661C771CB7
:102F20000A94D2F764FF14C00FE010E020E030E014
:102F3000B901A80104C0440F551F661F771F8A9569
:102F4000D2F7CB01BA01609570958095909503C03A
:102F500060E070E0CB012A2D26952695237030E0A5
:102F60002230310569F02330310589F06429752953
:102F7000862997292130310571F00E94141DF5C072
:102F800064297529862997290E94261DEEC00E9472
:102F9000141DC301B2010E94021DE7C0112319F0E4
:102FA0008A2D817001C08695882309F4DEC0862FA2
:102FB000829586958770880F880F962F9F70492E6F
:102FC000512C612C712C082E04C0440C551C661C1D
:102FD000771C0A94D2F764FF14C00FE010E020E0E1
:102FE00030E0B901A80104C0440F551F661F771FC8
:102FF0008A95D2F7CB01BA0160957095809590952E
:1030000003C060E070E0CB012A2D26952695237041
:10301000422F50E04230510569F04330510589F0AC
:1030200064297529862997294130510571F00E943C
:10303000DA1D9BC064297529862997290E94EC1DF9
:1030400094C00E94DA1DC301B2010E94C81D8DC048
:10305000862F90E0FC01E05EF109E531F10508F012
:1030600051C0E957FF4F0C944E2F062F0F708A2D39
:103070008F71112331F00E94611D802F0E94501624
:1030800068C00E94821D802F0E94571662C01123C3
:1030900041F0053008F05DC08A2D8F710E94A71D98
:1030A00058C0063008F055C0F7CF112339F08A2DEB
:1030B0008F710E94611D4DC01123C9F38A2D8F713C
:1030C0000E94821D46C0112329F08A2D8F710E9413
:1030D0004C1D3FC00E94471D3CC0112351F01A2DCA
:1030E0001F71812F0E94611D63E0812F0E94D11EFC
:1030F00030C081E00E94DA1E023058F182E00E9466
:10310000DA1E27C0112331F0002389F2862F0E9496
:10311000FA141FC0002391F2693349F45FEF77EE90
:1031200083E0515070408040E1F700C00000862FDE
:103130000E94F1150EC04A2D4F70C7010E94CA08A7
:103140000E94751C16C04A2D4F70C7010E94CD0801
:1031500010C098E0C916D10441F05CF0FAE0CF1A33
:10316000D10822E0C216D10420F40E94A7130E94C5
:10317000C808BB2001F10E94CD1E80FD1CC0F701D4
:1031800012820E94C71E0E94611DC7010E94EB1897
:103190000E94C71E0F90DF91CF911F910F91FF905A
:1031A000EF90DF90CF90BF90AF907F906F905F9047
:1031B0004F900C94821D0F90DF91CF911F910F9132
:1031C000FF90EF90DF90CF90BF90AF907F906F9087
:1031D0005F904F9008950F931F93CF93DF93EC016F
:1031E000888199812B813C81232BB9F09F3F11F479
:1031F0008F3F99F0CE010E945B05882371F06881B2
:1032000079818A810E94A41E8C010E94FE1D0E9469
:10321000FF1CB801CE010E945E16DF91CF911F9175
:103220000F9108950E944B1F0E945B1F8091020125
:10323000909103010E941D200E94F81E0E949D246F
:103240000E94042480E090E00E94C91380E090E096
:103250000C94DF130E943B1F0C9412190E94991EBC
:10326000E92FE295EF70F0E03297EE30F105B0F41F
:10327000E456FF4F0C944E2F803F91F018F4803E9F
:1032800068F40EC0843F51F40BC0803E48F0813F8B
:1032900029F406C093FB882780F9089580E00895FB
:1032A00081E00895CF93DF9300D000D01F92CDB777
:1032B000DEB70F900F900F900F900F90DF91CF918E
:1032C0000895CF93DF9300D000D000D0CDB7DEB704
:1032D00026960FB6F894DEBF0FBECDBFDF91CF911B
:1032E00008951F93CF93DF93C0918B0116E08091D7
:1032F0008C01C81799F0D0E01C9FF0011D9FF00DC4
:103300001124E357FE4F4081518162817381848192
:1033100095810E9461192196C770E9CFDF91CF9105
:103320001F9108954091BD015091BE016091BF0170
:103330007091C0018091C1019091C2010C946119FA
:103340008091C20182958F7009F054C08091BF01B5
:10335000882309F44FC080918B01A0918C0160916A
:10336000BD017091BE014091C0015091C101B6E014
:103370008A1709F43FC090E041155105C1F17F3F24
:1033800011F46F3FA1F1B89FF001B99FF00D112426
:10339000E357FE4F218172132AC02081621327C098
:1033A0002281211124C0238134812417350710F490
:1033B00021503109241B350B283C3105C0F42091E4
:1033C000C2012F7020612093C20126E0289FF001E6
:1033D000299FF00D1124EE56FE4F80818F70806181
:1033E00080838DEB91E00E94EB180C94711901968B
:1033F0008770BECF0895CF92DF92EF92FF920F9326
:103400001F93CF93DF93CDB7DEB762970FB6F894D3
:10341000DEBF0FBECDBF8C0185E0F801DE011D9639
:1034200001900D928A95E1F7D8014C9111965C912B
:10343000119712966C9112971396CD90DC90149779
:103440003091BD017091BE018091C0019091C10188
:10345000009709F46BC17F3F19F43F3F09F466C13F
:10346000E090BF01EE2009F4C0C02091C201C8164F
:10347000D90628F0F601E81BF90BCF0104C08095AE
:1034800090958C0D9D1DFF24F394883C910578F058
:10349000F12C207F09F0C6C07C2DD98AC88A898981
:1034A0000E9452198DEB91E00E94EB18B1C0822F5F
:1034B000807F09F046C0751314C0341312C0611127
:1034C00010C02F7020612093C2010E9492198DEBD1
:1034D00091E00E94EB188091C201D80115968C935F
:1034E0002EC0CD2819F15F3F11F44F3FF9F0F62EB1
:1034F00061111CC080918B0120918C0136E08217F4
:1035000009F45AC090E0389FF001399FF00D112462
:10351000E357FE4F7181571306C07081471303C0F4
:103520007281711103C001968770E9CFF62E662370
:1035300009F427C18091C20181608093C201F12CFE
:1035400020C1751308C0341306C0611104C08091F6
:10355000C201D801C3C04D875E878D859E856A8B69
:103560000E942E196A898823E1F16623D1F1209106
:10357000C201822F82958F7090E0029774F0809143
:10358000BD019091BE0198878F831986DB86CA861C
:103590002C87CE0107960E94EB1886E0F801ADEB70
:1035A000B1E001900D928A95E1F70E94A0190E9466
:1035B0009219FF24F394E5C04D875E878D859E8523
:1035C0000E94991E292F22952F7030E0223031055C
:1035D0000CF0CBC09F7009F0C5C0805E883008F445
:1035E000D0C0C8010E94EB18E4CFC816D90608F471
:1035F00053C0F601E81BF90BCF01883C910508F494
:1036000050C0F12C7C2DD98AC88A89890E94521910
:10361000EDEBF1E086E0DF011D928A95E9F70E946B
:103620009219AFC0751314C0341312C0611110C0C9
:103630008091C201F8018583C8010E94EB1886E0E1
:10364000EDEBF1E0DF011D928A95E9F7FE2C99C0C0
:103650004D875E878D859E856A8B0E942E196A89AB
:10366000882309F4BECF662309F4BBCF2091C201A1
:10367000822F82958F7090E002970CF48ECF80910C
:10368000BD019091BE019A8389831B82DD82CC8229
:103690002E83CE0101967FCF809590958C0D9D1D38
:1036A000ACCFF62E662309F49CCF75132EC03413CD
:1036B0002CC02091C20120FD1FC0822F82958F70E7
:1036C000D9F0D80115962C9315978F3049F08F5F5C
:1036D000982F9295907F822F8F70892B15968C93BF
:1036E000C8010E94EB1886E0F801ADEBB1E0019053
:1036F0000D928A95E1F793CF86E0F801ADEBB1E04A
:1037000001900D928A95E1F73CC04D875E878D85CB
:103710009E850E942E19811140CF8091C201816047
:103720008093C201C8010E94EB182BC0662309F4E4
:1037300058CF4D875E878D859E850E942E19F82E65
:10374000882309F44ECF86E0F801ADEBB1E001909B
:103750000D928A95E1F78DEB91E00E94F4140E949E
:10376000A0195DCF811139CF0CC0243031050CF088
:1037700038CF9F7009F431CFF8019581907F09F01F
:103780002CCF8F2D62960FB6F894DEBF0FBECDBF43
:10379000DF91CF911F910F91FF90EF90DF90CF902D
:1037A00008951F93CF93DF93CDB7DEB72C970FB655
:1037B000F894DEBF0FBECDBF4F83588769877A87E5
:1037C0008B879C87CE0107960E94FB19882369F09E
:1037D0008F8198852A853B85232BF1F19F3F09F046
:1037E00063C08F3F09F060C037C086E0FE013796A6
:1037F000DE01119601900D928A95E1F76F8178852F
:10380000EA85FB85309741F17F3F11F46F3F21F14D
:1038100020918C0130E0C901019687709927409171
:103820008B0150E08417950709F447C069837A83B8
:10383000FD83EC8396E0929FD001939FB00D1124FD
:10384000A357BE4FFE01319601900D929A95E1F774
:1038500080938C010E94711916E080918B019091E8
:103860008C018917C1F1189FC001112483579E4F05
:103870000E94FB19882379F1E0918B011E9FF001D2
:103880001124E357FE4F408151816281738184810D
:1038900095810E94611980918B0190E0019687705B
:1038A000992780938B01D9CF4F81588569857A8577
:1038B0008B859C850E946119CFCF0E942A19109296
:1038C0008C0110928B01EDEBF1E086E0DF011D929F
:1038D0008A95E9F7C1CF2C960FB6F894DEBF0FBEDC
:1038E000CDBFDF91CF911F910895EF92FF920F937B
:1038F0001F93CF93DF938C01892B09F46CC0F12CBB
:10390000EE24E394E8012196F8018491843740F491
:10391000843008F051C0813081F0823019F15BC0F1
:10392000853709F444C0A8F19CE7980F903708F058
:1039300052C08F770E94F11541C00E5F1F4FFE01EC
:10394000C49180E28C0F883048F4C7708E2D01C07E
:10395000880FCA95EAF70E944E1F14C08C2F0E9450
:10396000FA142DC00E5F1F4FFE01C49180E28C0F30
:10397000883058F4C7708E2D01C0880FCA95EAF7B9
:103980000E94541F0E94F81E1AC08C2F0E94F1152D
:1039900016C00E5F1F4FFE01C491CC2381F08FE94A
:1039A0009FE00197F1F700C00000C150F6CF0E5F15
:1039B0001F4FFE01F49003C00E94FA148E018F2D58
:1039C000882309F49FCFEFE9FFE03197F1F700C0BA
:1039D00000008150F5CFDF91CF911F910F91FF90A3
:1039E000EF90089508950E94F21C6093E501709392
:1039F000E6018093E7019093E8010C941219089571
:103A00000C94F31C0F931F930091E5011091E601B4
:103A10002091E7013091E801602B712B822B932BD1
:103A20001F910F910C94F31C0F931F930091E501CC
:103A30001091E6012091E7013091E80160237123A4
:103A4000822393231F910F910C94F31C0F931F93C8
:103A50000091E5011091E6012091E7013091E80124
:103A600060277127822793271F910F910C94F31CD5
:103A700008950C94381D0E94391D6093E1017093E4
:103A8000E2018093E3019093E4010C94121960E049
:103A900070E0CB010C943B1D0F931F9341E050E06D
:103AA00060E070E08A019B0104C0000F111F221F1B
:103AB000331F8A95D2F7C901B8011F910F910C9459
:103AC0003B1D0F931F9341E050E060E070E004C0A5
:103AD000440F551F661F771F8A95D2F78091E10129
:103AE0009091E201A091E301B091E4018A019B0170
:103AF000082B192B2A2B3B2BC901B8011F910F91C1
:103B00000C943B1D0F931F9341E050E060E070E088
:103B100004C0440F551F661F771F8A95D2F7409542
:103B20005095609570958091E1019091E201A0918E
:103B3000E301B091E4018A019B01082319232A23A0
:103B40003B23C901B8011F910F910C943B1D0F93AA
:103B50001F9341E050E060E070E004C0440F551F47
:103B6000661F771F8A95D2F78091E1019091E2015B
:103B7000A091E301B091E4018A019B010827192774
:103B80002A273B27C901B8011F910F910C943B1DB7
:103B90000F931F930091E1011091E2012091E30145
:103BA0003091E401602B712B822B932B1F910F918D
:103BB0000C943B1D0F931F930091E1011091E201C2
:103BC0002091E3013091E401602371238223932348
:103BD0001F910F910C943B1D0F931F930091E101D6
:103BE0001091E2012091E3013091E40160277127F7
:103BF000822793271F910F910C943B1D08952CE071
:103C0000929F800D1124A82FA695A695A695877042
:103C100051E001C0550F8A95EAF785E0A89FD001D1
:103C2000112420E030E070E0F901EA0FFB1FED53B2
:103C3000FE4F4081CB01022E02C0969587950A94D3
:103C4000E2F78170992781958427852384278083D3
:103C50002F5F3F4F2530310539F708952CE0929FB3
:103C6000800D1124682F669566956695982F97703C
:103C700085E0689FB001112440E050E080E0FA0147
:103C8000E60FF71FED53FE4F208130E0092E02C0F2
:103C9000369527950A94E2F721703327042E01C048
:103CA000220F0A94EAF7822B4F5F5F4F4530510590
:103CB00031F70895CF92DF92EF92FF920F931F9307
:103CC000CF93DF938C01C090E501D090E601E090A6
:103CD000E701F090E8018091E1019091E201A0916B
:103CE000E301B091E401C82AD92AEA2AFB2ACFE1EC
:103CF000D0E0D701C6010C2E04C0B695A7959795C4
:103D000087950A94D2F780FF06C0B8018C2F0E94D5
:103D1000E808019721F4219760F780E001C08C2F1B
:103D2000DF91CF911F910F91FF90EF90DF90CF9097
:103D30000895CF93DF93EC010E945A1EBE010E94AA
:103D4000E808DF91CF9108951F93CF93DF93EB01A4
:103D500090918A01992321F0CB010E94991E13C0F2
:103D6000882349F0CB010E945A1E182F682FCE01DC
:103D70000E94FF1D04C0CB010E942E1E182FBE0101
:103D8000812F0E94E808DF91CF911F9108958091C3
:103D9000E90185958595859508958091E90187705C
:103DA000089598E0899F90011124262B2093E90122
:103DB0000C94611D2091E901809582238093E90193
:103DC000982F977069F430E0482F082E000C550B9F
:103DD0002417350729F08595859585950C94821DC6
:103DE00008959091E901977081E009F480E00895C9
:103DF000E0910201F091030180910D028083E09136
:103E00000201F0910301908180910C02892B808343
:103E1000E0910201F0910301908180910B02892BC6
:103E200080838091EA01882381F0E0910201F09182
:103E300003019081892B808380910201909103017D
:103E40000E94AB1F81111092EA01809102019091B2
:103E500003010C94B31380910D02089590910D020B
:103E6000892B80930D020895809590910D028923EE
:103E700080930D02089510920D02089590910C0206
:103E8000892B80930C020895809590910C028923D0
:103E900080930C02089510920C02089590910B02E9
:103EA000892B80930B020895809590910B028923B2
:103EB00080930B02089510920B0208958093EA01FB
:103EC00008951092EA0108956DEE7EEF80E090E093
:103ED0000E94862F60E082E090E00E94682F60E000
:103EE00083E090E00E94682F60E084E090E00E9410
:103EF000682F60E085E090E00E94682F40E050E08D
:103F0000BA0188E090E00C947A2F80E090E00E9463
:103F1000622F21E08D3E9E4F09F020E0822F089510
:103F200082E090E00C94542F682F82E090E00C9493
:103F3000682F83E090E00C94542F682F83E090E08A
:103F40000C94682F84E090E00C94542F682F84E048
:103F500090E00C94682FFC0131969C01205E3F4F4D
:103F600080E0919191118F5FE217F307D1F70895E7
:103F70009C01FC0132969FEF80E04191461789F049
:103F80009F3F19F4411101C0982F8F5F8E31A9F71F
:103F90009F3F39F0F901E90FF11D97FDFA95628312
:103FA00008950895FC01329680962081261301C061
:103FB00010823196E817F907C1F70895262F269544
:103FC000269526952F3168F4FC01E20FF11D6770EC
:103FD00021E030E001C0220F6A95EAF78181282BA9
:103FE00021830895262F2695269526952F3170F446
:103FF000FC01E20FF11D677021E030E001C0220FEB
:104000006A95EAF7209581812823218308952091DC
:104010001401222329F020915D0227FD0C94DE1F5C
:104020000C94B81F20911401222329F020915D02E5
:1040300027FD0C94F21F0C94D21FFC013196809640
:104040001192E817F907E1F708958091630284302F
:1040500039F110920F0220E488E190E00FB6F89455
:10406000A895809360000FBE2093600080E00E94BE
:10407000C80883B7817F846083BF83B7816083BFB3
:104080007894889583B78E7F83BF0FB6F894A895F0
:1040900080916000886180936000109260000FBE84
:1040A000089508950895CF930E9451200E94E20B35
:1040B0000E945220C0E08C2F0E94A40C892B29F46E
:1040C000CF5FC430C1F780E001C081E0CF91089597
:1040D0000E942A190E94A7130C94C8081F920F92DD
:1040E0000FB60F9211248F939F93AF93BF9380913C
:1040F0000F02811113C08091590290915A02A09130
:104100005B02B0915C024196A11DB11D80935902E2
:1041100090935A02A0935B02B0935C02BF91AF915F
:104120009F918F910F900FBE0F901F90189582E076
:1041300084BD93E095BD9AEF97BD80936E0008957E
:104140002FB7F8948091590290915A02A0915B0286
:10415000B0915C022FBF0895CF92DF92EF92FF9251
:104160000F931F932FB7F8944091590250915A0220
:1041700060915B0270915C022FBF6A017B01EE24AB
:10418000FF248C0120E030E0C016D106E206F306E1
:1041900010F4415051099A01281B390BC9011F9194
:1041A0000F91FF90EF90DF90CF90089578941F9239
:1041B0000F920FB60F9211248F939F93AF93BF93DB
:1041C0008091590290915A02A0915B02B0915C02D9
:1041D0000196A11DB11D8093590290935A02A0939C
:1041E0005B02B0935C02BF91AF919F918F910F9052
:1041F0000FBE0F901F90189581E08093E00080E241
:104200008093D8001092C9008FE19EE40197F1F7E6
:1042100000C0000087E090EBDC0180936C0290937B
:104220006D02A0936E02B0936F029CE088E10FB61E
:10423000F894A895809360000FBE90936000FFCF24
:10424000AF92BF92CF92DF92EF92FF920F931F93A4
:10425000CF93C0E0CC24C394D12CE82EF12C8C2F2A
:104260000E94A40C5C0100E010E09601002E02C048
:10427000220F331F0A94E2F72A213B21232B31F42A
:104280000F5F1F4F0C30110581F70AC0602F7C2F84
:1042900080E00E94CE08E816F90691F781E004C09C
:1042A000CF5FC430E1F680E0CF911F910F91FF9076
:1042B000EF90DF90CF90BF90AF900895CF93C82F2D
:1042C0008CE20E942021882321F08C2FCF910C9426
:1042D000202180E0CF910895CF930E94851F811106
:1042E00002C00E94641FC5E6C15049F00E94E20B63
:1042F0008FE39CE90197F1F700C00000F5CF89E258
:104300000E945E2181110FC18AE20E945E2181110B
:104310000E94641F85E00E945E2181110E94FC20A2
:104320000E94901F80930E0287E00E945E218823E6
:10433000A9F18BE10E945E21882351F080910E0249
:1043400081FB222720F991E0922790FB81F90EC092
:104350008EE00E945E21882361F080910E0282FB34
:10436000222720F991E0922790FB82F980930E0298
:1043700015C080E10E945E2190910E02882341F0D9
:1043800093FB222720F981E0822780FB93F904C068
:10439000892F809580FB90F990930E0280910E02F8
:1043A0000E94941F0E94A21F90E090935E0280934F
:1043B0005D0280EE0E945E21882341F080915D02C3
:1043C000982F909590FB80F980935D0289E30E947D
:1043D0005E21882359F080915D0281FB222720F91C
:1043E00091E0922790FB81F980935D0282EE0E941A
:1043F0005E21882359F080915D0282FB222720F9FB
:1044000091E0922790FB82F980935D0286EE0E94F4
:104410005E21882359F080915D0283FB222720F9D9
:1044200091E0922790FB83F980935D0283EE0E94D6
:104430005E21882359F080915D0284FB222720F9B8
:1044400091E0922790FB84F980935D0285E30E94BE
:104450005E21882359F080915D0285FB222720F997
:1044600091E0922790FB85F980935D0281E30E94A1
:104470005E21882359F080915D0286FB222720F976
:1044800091E0922790FB86F980935D0281E10E9482
:104490005E21882359F080915D0287FB222720F955
:1044A00091E0922790FB87F980935D0280915D02F5
:1044B0000E94A61F87E20E945E21C82F8EE10E9403
:1044C0005E218111C2608FE10E945E218111C46072
:1044D00080E20E945E218111C86081E20E945E211B
:1044E0008111C06182E20E945E218111C06283E27B
:1044F0000E945E218111C06484E20E945E218823B3
:1045000011F0C06802C0CC2329F08C2F0E949D1F9F
:104510006C2F03C00E94991F682F70E080E090E02C
:10452000CF910C94001DCF9108958091120280FFCD
:104530000BC06091070185E0689FB001112475955B
:104540006795759567952BC081FF09C0609107013C
:1045500085E0689FB00111247595679520C082FFA2
:1045600007C06091070185E0689FB001112417C062
:10457000909113029923D1F060910601961788F764
:104580002091070185E0289F90011124929FA001AE
:10459000939F500D112470E0CA010E943A2F603899
:1045A000710540F46115710539F002C065E070E0F5
:1045B000862F08958FE7089581E008958091120273
:1045C00080FF08C06091050170E07595679575954D
:1045D000679521C081FF06C06091050170E0759567
:1045E000679519C082FF04C06091050170E010C09A
:1045F000909113029923C1F0609104019617A0F7DE
:1046000080910501899FC001112470E00E943A2F1A
:104610006038710528F46115710521F0862F089521
:104620008FE7089581E0089561E070E0F4CF803F66
:1046300021F40E949522819504C0813F29F40E94B3
:104640009522809316020895823F21F40E949522BC
:10465000819504C0833F29F40E949522809315021E
:104660000895893F19F40E94DE2205C08A3F31F483
:104670000E94DE2281958093170208958B3F21F4DA
:104680000E94DE22819504C08C3F29F40E94DE2224
:10469000809318020895843F21F480911402816070
:1046A00017C0853F21F480911402826011C0863FBB
:1046B00021F48091140284600BC0873F21F4809123
:1046C0001402886005C0883F31F480911402806133
:1046D0008093140208958D3F21F48091120281602D
:1046E0000BC08E3F21F480911202826005C08F3F83
:1046F00029F4809112028460809312020895803F11
:1047000039F48091160287FF6CC01092160269C0BE
:10471000813F29F4809116021816BCF362C0909173
:104720001502823F29F497FF5CC01092150259C010
:10473000833F19F41916CCF354C0893F41F480919A
:10474000170218160CF04DC0109217024AC08A3F8B
:1047500029F48091170287FF44C0F6CF8B3F39F4CC
:104760008091180287FF3DC0109218023AC08C3F1A
:1047700029F4809118021816BCF333C0843F21F449
:10478000809114028E7F17C0853F21F4809114021E
:104790008D7F11C0863F21F4809114028B7F0BC066
:1047A000873F21F480911402877F05C0883F31F450
:1047B000809114028F7E8093140213C08D3F21F4E8
:1047C000809112028E7F0BC08E3F21F480911202E5
:1047D0008D7F05C08F3F29F4809112028B7F8093DB
:1047E00012028091150281110EC080911602811172
:1047F0000AC080911702811106C0809118028111B0
:1048000002C010921302089584E192E00E94BE1348
:104810000E94A020909311028093100208951F938C
:10482000CF93DF9380911002909111020E94AC20EF
:10483000AC0190911302992321F02091080130E0FE
:1048400006C0209109018AE0289F90011124421797
:10485000530708F46EC080911502C0911602D091E2
:10486000170210911802811107C0C1115EC0D11149
:104870005CC011115AC05DC09F3F19F09F5F9093BB
:104880001302181624F40E94952280931502809139
:10489000150287FF05C00E9495228195809315021D
:1048A0001C1624F40E949522809316028091160211
:1048B00087FF05C00E949522819580931602409142
:1048C0001502442379F030911602332359F025EB79
:1048D0004203A0011124509315023203C001112498
:1048E000909316021D1624F40E94DE228093170274
:1048F0008091170287FF05C00E94DE228195809378
:104900001702111624F40E94DE228093180280916F
:10491000180287FF05C00E94DE228195809318024D
:10492000DF91CF911F910C9404249F3F09F0A6CFF3
:10493000AECFDF91CF911F910895E4E1F2E085E0E1
:10494000DF011D928A95E9F710921302109212026C
:1049500008958091390208950F931F93CF93DF93A9
:1049600000D01F92CDB7DEB78C010E942427823081
:1049700011F0843019F593E099831B830A83909397
:10498000E9008FEF9091E800815095FD06C095ED0C
:104990009A95F1F700008111F5CF8091E80085FF2D
:1049A0000DC040E050E063E070E0CE0101960E944F
:1049B00041278091E8008E778093E8000F900F9058
:1049C0000F90DF91CF911F910F910895CF93DF93B7
:1049D00000D01F92CDB7DEB720916302243031F5AD
:1049E00022E02983805891099B838A8383E0809306
:1049F000E9008FEF9091E800815095FD06C095ED9C
:104A00009A95F1F700008111F5CF8091E80085FFBC
:104A10000DC040E050E063E070E0CE0101960E94DE
:104A200041278091E8008E778093E8000F900F90E7
:104A30000F90DF91CF910895CF93DF93EC010E9407
:104A40002427823011F08430F9F482E08093E90069
:104A50009FEF8091E800915085FD06C085ED8A9515
:104A6000F1F700009111F5CF8091E80085FF0CC0AF
:104A700040E050E065E070E0CE010E944127809167
:104A8000E8008E778093E800DF91CF910895CF936F
:104A9000DF93EC010E942427823019F0843009F062
:104AA00047C0809114018823E1F080915D0287FF67
:104AB00018C084E08093E9008FEF9091E800815066
:104AC00095FD06C095E19A95F1F700008111F5CFAB
:104AD0008091E80085FF2CC040E050E060E270E08B
:104AE00017C081E08093E9008FEF9091E80081503A
:104AF00095FD06C095ED9A95F1F700008111F5CF6F
:104B00008091E80085FF14C040E050E068E070E06C
:104B1000CE010E9441278091E8008E778093E800C3
:104B200080E2FE01A9E1B2E001900D928A95E1F7E1
:104B3000DF91CF91089580916202811109C00E9496
:104B4000D6280E9433298091E20084608093E2009D
:104B50000895109262020895089508950C946820B3
:104B600042E061EC81E00E94502842E061EC82E08A
:104B70000E94502842E061EC83E00E94502842E20B
:104B800061EC84E00C94502880916502833009F434
:104B900055C030F4813071F0823009F48EC0089530
:104BA0008A3009F47AC08B3009F460C0893009F08A
:104BB0009CC020C080916402813A09F096C0809127
:104BC000E800877F8093E8008091680290916902F5
:104BD000892B21F460E289E192E003C060E080E08B
:104BE00090E070E00E948C278091E8008B778093A2
:104BF000E800089580916402813209F076C08091C6
:104C0000680290916902009719F0039709F06DC04E
:104C10008091E800877F8093E8008091E80082FD22
:104C200005C0809163028111F8CF5FC08091F100CF
:104C3000809339028091E8008B7753C080916402A1
:104C4000813A09F052C08091680290916902892BE3
:104C500009F04BC08091E800877F8093E800809145
:104C6000E80080FFFCCF8091140136C0809164027F
:104C70008132D9F58091680290916902892BA9F55A
:104C80008091E800877F8093E8000E9485288091CA
:104C90006602809314010C942A1980916402813277
:104CA00021F58091E800877F8093E8000E948528A5
:104CB0008091670280933A02089580916402813A5C
:104CC000A1F48091E800877F8093E8008091E8005C
:104CD00080FFFCCF80913A028093F1008091E80040
:104CE0008E778093E8000C948528089584B7877F99
:104CF00084BF0FB6F894A895809160008861809376
:104D00006000109260000FBE80E8809361001092F6
:104D100061000E94F6130E94D6280E9433298091D8
:104D2000E20084608093E20078940E94C22B0E948B
:104D3000FA138AE091E00E94A21380916302853009
:104D400069F40E942520809161028823B1F30E94BA
:104D50005320882391F30E942B27EFCF0E94081441
:104D60000E943613EACF0C94B526292F332723301F
:104D70003105C9F064F42130310581F0223031056C
:104D800009F049C08DE690E023EF36E048C02132BB
:104D9000310521F12232310571F13DC082E190E00F
:104DA00020E637E03CC099278130910571F02CF462
:104DB000892B89F5EFEEF6E00DC08230910541F0C8
:104DC000039749F5E9ECF6E005C0EFEDF6E002C027
:104DD000EFECF6E0849190E09F0121C06430710512
:104DE000D0F4660F771FFB01EF5CFE4F208131810D
:104DF00089E090E014C06430710568F4FB01EE0FA7
:104E0000FF1FE75DFE4F20813181FB01EB5DFE4F0F
:104E1000808190E004C080E090E020E030E0FA0182
:104E20003183208308950895CF93C82F0E941327BC
:104E3000C0933B02CF91089580916302843011F0BA
:104E400081E0089582E0089580913B02811102C0C3
:104E50000C941C27089580E189BD82E189BD09B4C5
:104E600000FEFDCF8091D8008F7D8093D800809187
:104E7000E00082608093E0008091E00081FDFCCF43
:104E80000895CF92DF92EF92FF920F931F93CF93EB
:104E9000DF93EC018B016A010E94A428811133C0C9
:104EA000C114D10439F0F60180819181081B190BDE
:104EB000C80FD91FE12CF12C0115110519F18091B2
:104EC000E80085FD16C08091E8008E778093E800A9
:104ED000C114D10449F0F60180819181E80EF91ED8
:104EE000F182E08285E00FC00E94A428882321F38C
:104EF0000AC089918093F10001501109FFEFEF1A68
:104F0000FF0ADACF80E0DF91CF911F910F91FF90E0
:104F1000EF90DF90CF90089520916A0230916B025C
:104F20002617370748F06115710539F42091E8001C
:104F30002E772093E80001C0B90140E061157105AA
:104F4000A9F120916302222309F443C0253009F41A
:104F500042C02091E80023FD40C02091E80022FDDE
:104F600032C02091E80020FFE9CF4091F30020916A
:104F7000F20030E0342BFC01CF016115710559F0CE
:104F80002830310540F481918093F100615071091E
:104F90002F5F3F4FF1CF41E02830310509F040E06D
:104FA0002091E8002E772093E800C8CF4111C9CFA7
:104FB0000AC080916302882361F0853061F080919E
:104FC000E80083FD0AC08091E80082FFF2CF80E014
:104FD000089582E0089583E0089581E00895209186
:104FE0006A0230916B022617370748F06115710588
:104FF00039F42091E8002E772093E80001C0B90130
:10500000FC0120E06115710591F180916302882314
:1050100009F440C0853009F43FC08091E80083FD69
:105020003DC08091E80082FD2FC08091E80080FFA4
:10503000E9CF2091F3008091F20090E0922B61156E
:10504000710559F08830910540F424912093F100C6
:105050003196615071090196F2CF21E0089709F06D
:1050600020E08091E8008E778093E800CBCF21117B
:10507000CCCF0AC080916302882361F0853061F053
:105080008091E80083FD0AC08091E80082FFF2CFA2
:1050900080E0089582E0089583E0089581E0089516
:1050A000982F973058F59093E900981739F0709140
:1050B000EC002091ED005091F00003C0242F762FDA
:1050C00050E021FF19C03091EB003E7F3093EB00A0
:1050D0003091ED003D7F3093ED003091EB00316079
:1050E0003093EB007093EC002093ED005093F000B0
:1050F0002091EE0027FF07C09F5FD3CF8F70809372
:10510000E90081E0089580E008958091640287FFBE
:1051100011C08091E80082FD05C080916302811179
:10512000F8CF11C08091E8008B770BC080916302AB
:10513000882349F08091E80080FFF8CF8091E80053
:105140008E778093E80008952091E4003091E50087
:1051500095E64091EC00842F817040FF22C0809141
:10516000E80080FD1CC080916302882391F08530A7
:1051700091F08091EB0085FD10C04091E4005091CA
:10518000E5004217530729F39A01915011F784E083
:10519000089582E0089583E0089581E0089580E015
:1051A00008954091E80042FFDECF08950E9444290F
:1051B0000E944C29E0EEF0E0808181608083E8ED80
:1051C000F0E080818F77808319BCA7EDB0E08C91EF
:1051D0008E7F8C9380818F7E8083109262020895EF
:1051E0000F931F93CF93DF930E9444290E944C2971
:1051F000C8EDD0E088818F77888388818068888334
:1052000088818F7D888319BC1092630210925F029F
:10521000109261021092600200EE10E0F8018081AD
:105220008B7F808388818160888342E060E080E0BA
:105230000E945028E1EEF0E080818E7F8083E2EED4
:10524000F0E0808181608083808188608083F801C4
:1052500080818E7F8083888180618883DF91CF9178
:105260001F910F910895E8EDF0E080818F7E80839B
:10527000E7EDF0E080818160808384E082BF81E09F
:10528000809362020C94F028E8EDF0E080818E7F3C
:1052900080831092E20008951092DA001092E100EB
:1052A00008951F920F920FB60F9211242F933F93E0
:1052B0004F935F936F937F938F939F93AF93BF931E
:1052C000EF93FF938091E10082FF0BC08091E20099
:1052D00082FF07C08091E1008B7F8093E1000E94F4
:1052E000C12B8091DA0080FF1FC08091D80080FF21
:1052F0001BC08091DA008E7F8093DA008091D90004
:1053000080FF0DC080E189BD82E189BD09B400FE46
:10531000FDCF81E0809363020E949B2505C019BCEC
:10532000109263020E94A9258091E10080FF19C0BC
:105330008091E20080FF15C08091E2008E7F809313
:10534000E2008091E20080618093E2008091D800C9
:1053500080628093D80019BC85E0809363020E942C
:10536000AD258091E10084FF30C08091E20084FF90
:105370002CC080E189BD82E189BD09B400FEFDCF6A
:105380008091D8008F7D8093D8008091E1008F7E3E
:105390008093E1008091E2008F7E8093E200809113
:1053A000E20081608093E20080915F02882311F027
:1053B00084E007C08091E30087FD02C081E001C066
:1053C00083E0809363020E94AE258091E10083FF19
:1053D00029C08091E20083FF25C08091E100877F92
:1053E0008093E10082E08093630210925F028091DB
:1053F000E1008E7F8093E1008091E2008E7F8093B8
:10540000E2008091E20080618093E20042E060E08F
:1054100080E00E9450288091F00088608093F00026
:105420000E94AC25FF91EF91BF91AF919F918F9119
:105430007F916F915F914F913F912F910F900FBE90
:105440000F901F9018951F920F920FB60F92112474
:105450002F933F934F935F936F937F938F939F937C
:10546000AF93BF93CF93DF93EF93FF93C091E90086
:10547000CF708091EC00D82FD17080FDD0E81092D1
:10548000E9008091F000877F8093F00078940E947B
:10549000672A1092E9008091F00088608093F00004
:1054A000CD2BCF70C093E900FF91EF91DF91CF91A9
:1054B000BF91AF919F918F917F916F915F914F912C
:1054C0003F912F910F900FBE0F901F9018951F9333
:1054D000CF93DF93CDB7DEB7AA970FB6F894DEBFB0
:1054E0000FBECDBFE4E6F2E088E08E0F9091F100B0
:1054F00091938E13FBCF0E94C4258091E80083FF17
:1055000028C18091640290916502492F50E04A3091
:10551000510508F01EC1FA01E655FF4F0C944E2FBD
:10552000803821F0823809F014C108C080916002EF
:1055300090916102992389F082600FC08091680286
:105540008F70873008F005C18093E9008091EB00EF
:1055500085FB882780F91092E9009091E800977FF9
:105560009093E8008093F1001092F100D0C0282FB2
:105570002D7F09F0EEC0882319F0823061F0E9C078
:1055800080916602813009F0E4C0933009F080E038
:10559000809361022EC08091660281112AC08091A1
:1055A00068028F702FEF280F263008F0D2C080934A
:1055B000E9002091EB0020FF1CC0933021F4809182
:1055C000EB00806214C09091EB0090619093EB002F
:1055D00021E030E0A90102C0440F551F8A95E2F78F
:1055E0004093EA001092EA008091EB00886080937B
:1055F000EB001092E9008091E800877F8093E8003B
:105600000E948528A6C08111A4C0109166021F7750
:105610008091E3008078812B8093E3008091E80003
:10562000877F8093E8000E9485288091E80080FFB2
:10563000FCCF8091E30080688093E300111102C0E9
:1056400082E001C083E08093630283C0805882308F
:1056500008F07FC080916602909167028C3D53E014
:10566000950779F583E08A838AE289834FB7F894B6
:10567000DE01139620E03EE051E2E32FF0E050938C
:105680005700E49120FF03C0E295EF703F5FEF7099
:105690008E2F90E0EA3010F0C79601C0C0968D932F
:1056A0009D932F5F243149F74FBF8091E800877F9A
:1056B0008093E8006AE270E0CE0101960E948C2798
:1056C00015C06091680270916902AE014F5F5F4F33
:1056D0000E94B326BC01892BE1F19091E800977FED
:1056E0009093E80089819A810E94EF278091E800D9
:1056F0008B778093E8002DC0803859F58091E800C1
:10570000877F8093E80080915F028093F100809111
:10571000E8008E7773CF81111CC0909166029230A1
:10572000C0F48091E800877F8093E80090935F0247
:105730000E94852880915F02811106C08091E3005C
:1057400087FD02C081E001C084E0809363020E9473
:10575000B0258091E80083FF0AC08091E800877F30
:105760008093E8008091EB0080628093EB00AA9622
:105770000FB6F894DEBF0FBECDBFDF91CF911F9162
:1057800008950895CF93809163028823A1F0C0917A
:10579000E900CF709091EC00892F817090FD80E836
:1057A000C82B1092E9008091E80083FD0E94672ACF
:1057B000CF70C093E900CF9108955058BB27AA2716
:1057C0000E94F52B0C94A02D0E94922D38F00E947F
:1057D000992D20F039F49F3F19F426F40C94682D8C
:1057E0000EF4E095E7FB0C94622DE92F0E94B12D99
:1057F00058F3BA17620773078407950720F079F406
:10580000A6F50C94D32D0EF4E0950B2EBA2FA02DF7
:105810000B01B90190010C01CA01A0011124FF275D
:10582000591B99F0593F50F4503E68F11A16F04058
:10583000A22F232F342F4427585FF3CF4695379557
:105840002795A795F0405395C9F77EF41F16BA0B1C
:10585000620B730B840BBAF09150A1F0FF0FBB1FCA
:10586000661F771F881FC2F70EC0BA0F621F731F13
:10587000841F48F4879577956795B795F7959E3F70
:1058800008F0B0CF9395880F08F09927EE0F979501
:10589000879508950E945E2C0C94A02D0E94992D4E
:1058A00058F00E94922D40F029F45F3F29F00C94AB
:1058B000622D51110C94D42D0C94682D0E94B12DA1
:1058C00068F39923B1F3552391F3951B550BBB272F
:1058D000AA2762177307840738F09F5F5F4F220F74
:1058E000331F441FAA1FA9F335D00E2E3AF0E0E86B
:1058F00032D091505040E695001CCAF72BD0FE2FB5
:1059000029D0660F771F881FBB1F26173707480748
:10591000AB07B0E809F0BB0B802DBF01FF27935800
:105920005F4F3AF09E3F510578F00C94622D0C9435
:10593000D42D5F3FE4F3983ED4F386957795679531
:10594000B795F7959F5FC9F7880F911D9695879535
:1059500097F90895E1E0660F771F881FBB1F621754
:1059600073078407BA0720F0621B730B840BBA0B12
:10597000EE1F88F7E095089529F416F00C94622D37
:105980000C94D32D0C94682D0E94B92DA8F3963851
:10599000A0F707F80F92E8942BE33AEA48EB5FE7A9
:1059A0000E94662E0F920F920F924DB75EB70F9224
:1059B0000E941C2EE8E6F1E00E946B2D4F915F9152
:1059C000EF91FF91E595EE1FFF1F49F0FE57E0684C
:1059D0004427EE0F441FFA95E1F74195550B0E94BD
:1059E000E62D0F9007FE0C94DA2D08950E94B92D34
:1059F00088F09F5798F0B92F9927B751B0F0E1F090
:105A0000660F771F881F991F1AF0BA95C9F714C03F
:105A1000B13091F00E94D32DB1E008950C94D32DB4
:105A2000672F782F8827B85F39F0B93FCCF3869578
:105A300077956795B395D9F73EF4909580957095D5
:105A400061957F4F8F4F9F4F0895E89409C097FB52
:105A50003EF490958095709561957F4F8F4F9F4F45
:105A60009923A9F0F92F96E9BB279395F695879589
:105A700077956795B795F111F8CFFAF4BB0F11F44C
:105A800060FF1BC06F5F7F4F8F4F9F4F16C08823F3
:105A900011F096E911C0772321F09EE8872F762F29
:105AA00005C0662371F096E8862F70E060E02AF06A
:105AB0009A95660F771F881FDAF7880F9695879556
:105AC00097F9089597F99F6780E870E060E008957E
:105AD0009FEF80EC0895DF93CF931F930F93FF9276
