:100000000C9424040C946B040C946B040C946B04FB
:100010000C946B040C946B040C946B040C946B04A4
:100020000C946B040C946B040C94AA290C947C2AF9
:100030000C94C7200C946B040C946B040C946B040C
:100040000C946B040C946B040C946B040C946B0474
:100050000C946B040C942F210C946B040C946B0483
:100060000C946B040C946B040C946B040C946B0454
:100070000C946B040C946B040C946B040C946B0444
:100080000C946B040C946B040C946B040C946B0434
:100090000C946B040C946B040C946B040C946B0424
:1000A0000C946B040C946B040C946B047B057D0521
:1000B00088057F0581058305850587058A058C05EB
:1000C0008E059905900592059405960598059B0562
:1000D000F016F0162A172A1769178917FC18FC184A
:1000E000CB17FC187B187B18EE18FC18FC18F618B8
:1000F0008818881888188818881888188818881800
:1001000088188818881888188818881888188818EF
:100110009A18A818AF18B618C0188F198F19A119F6
:10012000A1199819A119A119A1198F198F199D1930
:10013000A119A1199D19E92A102B022C102B022CB0
:100140005C2B7F2B022CD52BE42B07634236B79B0D
:10015000D8A71A39685618AEBAAB558C1D3CB7CC27
:100160005763BD6DEDFD753EF6177231BF0000009F
:10017000803F05A84CCDB2D44EB93836A9020C50F8
:10018000B9918688083CA6AAAA2ABE000000803F32
:100190004F62656C69736B323637210029001E008F
:1001A0001F0020002100220023002400250026003B
:1001B00027002D002E0031004C002B000000140001
:1001C0001A000800150017001C0018000C0012008F
:1001D00013002F0030002A00E00000000400160089
:1001E000070009000A000B000D000E000F0033008D
:1001F000340028000000E10000001D001B00060084
:10020000190005001100100036003700380000000A
:10021000E50001540154E3000000E200000000008A
:100220002C000000000000000000015700000251F7
:10023000E40001003A003B003C003D003E003F006E
:1002400040004100420043004400450049003500A1
:1002500001000000BB5CBD5CBA5C01000100010054
:10026000010046004700480052000100010039002B
:100270000000AA00A900A8000100010055005400D8
:100280004A004B0050004F005800000001000100E0
:10029000AC00AB00AE0001000100570056004D005D
:1002A0004E005100000001000100010001000000AB
:1002B0000100010000000100000001000000010039
:1002C0000100010001000100A600B30001000100CF
:1002D0000100010001000100010001000100010016
:1002E00001000100005CA7000000D25C01000100D9
:1002F00001000100010001000100010001000100F6
:1003000001000100010000000100010001000100E6
:1003100001000100010001000100010001000100D5
:1003200000000100010001000100010001000100C6
:1003300001000100010001000100000001000100B6
:1003400001000100000001000100000001000000A8
:100350000100000001000100010001000100010096
:100360000100010001000100010001000100010085
:100370000100010001000100010001000100000076
:10038000F400F000F500F900010001000100010097
:100390000100010001000100010001000000F20065
:1003A000F100F300FA00010001000100010001006A
:1003B0000100010001000000010001000100010036
:1003C0000100010001000100010001000100010025
:1003D0000000010001000100010000000100010017
:1003E0000000F40000000100000001000100010015
:1003F00001000100010001000100010001000100F5
:1004000001000100010001000100010001000100E4
:1004100001000100000001000100010001000100D5
:100420000100010052000100010001000100010073
:1004300001000000010001000100010001000100B5
:10044000500051004F0001000100010000000100B8
:100450000100010001000100010001000100010094
:100460000100010001000000010001000100010085
:100470000000010001000000010000000100000078
:100480000100010001000100010000000000000067
:1004900000002A2B280000000000000000000000DF
:1004A000000000000029000000002C1E3420212242
:1004B00024342627252E362D3738271E1F202122AB
:1004C000232425263333362E37381F040506070824
:1004D000090A0B0C0D0E0F10111213141516171814
:1004E000191A1B1C1D2F3130232D35040506070852
:1004F000090A0B0C0D0E0F101112131415161718F4
:10050000191A1B1C1D2F3130354C00000000000053
:1005100000000000000000000000000000000000DB
:1005200000000000000000000000000101010101C6
:1005300001000101010100000000000000000000B6
:1005400000000000010001000101010101010101A1
:10055000010101010101010101010101010101018B
:100560000101010101000000010100000000000084
:10057000000000000000000000000000000000007B
:10058000000000000001010101006801F000B4005A
:1005900078005A007F3F1F643214643214783C1E86
:1005A0001E140A0500000000000101010101010103
:1005B0000101020202020202020202030303030318
:1005C00003030304040404040405050505050606E5
:1005D00006060607070707080808080909090A0A9E
:1005E0000A0A0B0B0B0C0C0C0D0D0D0E0E0F0F0F42
:1005F00010101111111212131314141515161617C9
:1006000017181819191A1A1B1C1C1D1D1E1F1F2034
:10061000202122222324252526272728292A2B2B7F
:100620002C2D2E2F2F3031323334353636373839A2
:100630003A3B3C3D3E3F4041424344464748494A9D
:100640004B4C4D4F50515253555657585A5B5C5E68
:100650005F606263646667696A6C6D6E7071737403
:100660007678797B7C7E8081838486888A8B8D8F67
:1006700091929496989A9B9D9FA1A3A5A7A9ABAD93
:10068000AFB1B3B5B7B9BBBDBFC1C4C6C8CACCCF83
:10069000D1D3D6D8DADCDFE1E4E6E8EBEDF0F2F531
:1006A000F7FAFCFF0403300000000A0344005A007C
:1006B00036003000000010034B00420044004600AA
:1006C00061006E00730000000403090409026D005C
:1006D000040100A0FA09040000010301010009213E
:1006E000110100012240000705810308000A0904E6
:1006F00001000103010200092111010001224D0046
:100700000705820308000A09040200010300000033
:100710000921110100012236000705830308000AA0
:100720000904030001030000000921110100012256
:1007300039000705840320000112011001000000A8
:1007400008EDFE602201000102030105010906A176
:1007500001050719E029E7150025019508750181B4
:100760000205081901290595057501910295017584
:100770000391010507190029F71500250195F87562
:10078000018102C005010980A10185021601002630
:1007900003001A81002A8300751095018100C005AD
:1007A0000C0901A1018503160100269C021A010013
:1007B0002A9C02751095018100C005010902A10162
:1007C0000901A10005091901290515002501950553
:1007D0007501810295017503810105010930093117
:1007E0001581257F95027508810609381581257FB9
:1007F000950175088106050C0A38021581257F953B
:100800000175088106C0C005010906A10105071987
:10081000E029E7150025019508750181029501750C
:1008200008810105081901290595057501910295B1
:1008300001750391010507190029FF150026FF0026
:10084000950675088100C00011241FBECFEFDAE0C5
:10085000DEBFCDBF04B603FE27C08091D4029091C5
:10086000D502A091D602B091D7028730904BA74015
:10087000B04BD1F41092D4021092D5021092D6024D
:100880001092D70214BE84B7877F84BF0FB6F89446
:10089000A89580916000886180936000109260004C
:1008A0000FBEE0E0F8E3099511E0A0E0B1E0EEEE64
:1008B000FFE502C005900D92A636B107D9F722E0F8
:1008C000A6E6B1E001C01D92A43DB207E1F70E9487
:1008D000CF260C94F52F0C9400000C94A10A229AB8
:1008E0002A9A08950E94B8040C946F040C94EF07A0
:1008F000CF93DF93EC018885882331F083E00E9459
:10090000B41D81E0809385028881813051F082306E
:1009100099F484E00E94B41D83E0DF91CF910C94A0
:10092000D51D8885811108C083E00E94D51D84E013
:100930000E94D51D10928502DF91CF91089580917C
:100940008502882329F083E00E94D51D109285023C
:100950000895823D9C4551F4FB018281882339F042
:1009600080E991E00E94D80780E0089581E0089531
:1009700084E00C94D20B81E008950C94A9040E94A9
:100980007D192FEF84E39CE0215080409040E1F7F7
:1009900000C000000C945521FF920F931F93CF933A
:1009A000DF938C01FC01C081D1818091BE01811156
:1009B00013C08281882349F0CE010E94AD1EF82E1B
:1009C000682FCE010E94521E04C0CE010E94811EDB
:1009D000F82EBE018F2D04C0CE010E94AD1EBE01B7
:1009E0000E94F607EC01B8010E940A13B801CE017B
:1009F0000E94BD04882309F47BC2B801CE010E9485
:100A00004C13882309F474C2B801CE010E94520A23
:100A1000882309F46DC2B801CE010E94AE0B882371
:100A200009F466C2C23CFCE5DF0741F4F8018281AB
:100A3000882309F45DC20E940F0F5AC2C33C8CE5A3
:100A4000D80708F015C1CB3B9CE5D90761F4F80144
:100A50008281882309F44CC20E947E1F8272E1F0D9
:100A60000E94AE0F45C2CC3BECE5DE07C0F0CE3BAA
:100A70009CE5D90709F4CDC008F0DFC0CC3BFCE50C
:100A8000DF0709F0CEC0F8018281882309F430C263
:100A90000E947E1F827221F30E94A40F29C2C531D9
:100AA000FCE5DF0708F07EC0C2308CE5D80708F40B
:100AB00052C0F8018281882309F459C00E94DE1FC8
:100AC000811102C00E94BD1F0E94FB1F90E0909305
:100AD000C6028093C502FE01E350FC45E231F105F8
:100AE00030F4EA5AFF4F8091C5020C94A72F8091F1
:100AF000C502816027C0826025C0846023C08061F8
:100B000021C080621FC080641DC080681BC08460DB
:100B1000886018C08E7F16C08D7F14C08B7F12C076
:100B20008F7E10C08F7D0EC08F7B0CC08F770AC068
:100B30008B7F877F07C087FB222720F991E09227D0
:100B400090FB87F98093C5028091C5020E94FF1F28
:100B50000E947D19CDC1C1159CE5D90781F0C13036
:100B6000DC45A9F081E080936B0180936C01C801A2
:100B7000DF91CF911F910F91FF900C94BB04F8016E
:100B80008281882309F4B4C10E94BF04B1C1F80175
:100B90008281882309F4ACC18091560281608093E0
:100BA0005602A6C1C531FCE5DF0739F50E947E1F5C
:100BB000282FF801828140912B0150912C0188232C
:100BC00079F02A7A91E009F490E09093660191110E
:100BD00002C069E201C065E3CA010E9460200AC048
:100BE00080916601811102C069E201C065E3CA011A
:100BF0000E946B200E944B1F7BC1CA3BDC4509F061
:100C0000B1CFF8018281882309F472C10E94EB0FF1
:100C10006FC1F8018281882309F46AC10E94A00E85
:100C200067C1CD3BDC4509F09DCFF8018281882367
:100C300009F45EC10E94880E5BC1F8018281C03C4C
:100C4000FCE5DF0731F4882309F452C10E94DA0E73
:100C50004FC1C13CDC4530F4882309F449C10E94EE
:100C6000BF0E46C1882309F443C10E94F40E40C15F
:100C7000C93CECE5DE0749F4F8018281882309F4D8
:100C800037C188E10E94290F33C1CA3CFCE5DF0768
:100C900008F088C0C53C8CE5D807B1F4F801828122
:100CA000882309F425C10E94580D6630710581051D
:100CB000910540F00E94580D68307105810591053D
:100CC00008F4EACE86E0DECFC63C9CE5D90728F5DD
:100CD000C33CECE5DE0739F4F8018281882309F48E
:100CE00007C181E0CFCFC43CDC4509F03BCFF80120
:100CF0008281882309F4FCC00E94580D623071057E
:100D00008105910540F00E94580D653071058105FF
:100D1000910508F4C1CE82E0B5CFF8018281C73CCD
:100D2000FCE5DF07A1F4882309F4E2C00E94580D16
:100D30006F3071058105910540F00E94580D6431B6
:100D400071058105910508F4A7CE8FE09BCFC83CC3
:100D5000DC45A0F4882309F4CBC00E94580D69300B
:100D600071058105910540F00E94580D6E307105A6
:100D70008105910508F490CE89E084CF882309F499
:100D8000B7C00E94580D653171058105910540F08D
:100D90000E94580D673171058105910508F47CCEDC
:100DA00085E170CFCC3CECE5DE0739F5F8018281B6
:100DB000882361F010926C010E94F92090936A01DF
:100DC0008093690180E20E94A31692C080916C0119
:100DD00081110FC08091690190916A010E940521E3
:100DE000883C910530F487E20E944D1587E20E940D
:100DF000441680E20E94AA167BC0CD3CFCE5DF07CA
:100E000008F041C0CA3C8CE5D807B1F4F8018281F2
:100E1000882309F46DC00E94580D69317105810560
:100E2000910540F00E94580D6232710581059105CF
:100E300008F432CE89E126CFCB3CDC4509F092CED6
:100E4000F8018281882351F010926B010E94F920F1
:100E5000909368018093670182E0B5CF80916B0128
:100E600081110FC080916701909168010E94052156
:100E7000883C910530F486E20E944D1586E20E947E
:100E8000441682E0B7CFC03DECE5DE0731F4F8014F
:100E90008281882369F180E009C0C13DFCE5DF075C
:100EA00041F4F8018281882319F182E00E946D27C4
:100EB0001FC0CD3CDC4509F055CEF801828181117F
:100EC00079CF80916C01811194CF809169019091CB
:100ED0006A010E940521883C910508F08ACF80E2D2
:100EE0000E94AA1688E20E944D1588E20E944416CC
:100EF00080E0DF91CF911F910F91FF900895CF93E4
:100F0000282F30E0F901E657FB4FC491F901E65F65
:100F1000FA4F2491222359F081EE0E944D158C2F17
:100F20000E944D158C2F0E94441681EE04C08C2F18
:100F30000E944D158C2FCF910C9444160F931F9344
:100F4000CF93DF93EC01062FFE018491882359F1A2
:100F50009E012F5F3F4F813041F4E901F901149167
:100F6000812F0E944D15812F0DC0823031F4E9018F
:100F7000F90184910E944D150AC0833031F4E901D2
:100F8000F90184910E94441602C00E947F072196B5
:100F9000802F8823C9F2EFE9FFE03197F1F700C015
:100FA00000008150F6CFDF91CF911F910F910895EE
:100FB00060E00C949E070C9472040E94A8130C9499
:100FC0006D04282F2F7041F0822F90E02A3010F40A
:100FD0004D9608950697089587E290E00895089544
:100FE0000C94760480E090E0089508959FE0799F46
:100FF000F00111249BE4899FE00DF11D1124E60FFF
:10100000F11DEE0FFF1FE456FE4F85919491089558
:10101000880F991FFC01E657FA4F85919491089526
:10102000CF93DF930E94F6070E94A809EC01811577
:1010300020E49207B0F5811540E3940708F0E1C081
:10104000803E9105D0F4803C910508F06FC0883A4D
:10105000910570F4853A910508F06BC081309105D7
:1010600009F472C108F429C1049708F06DC125C1C3
:101070008D3B910508F468C020C18F3F910509F0B0
:1010800048F4803F910508F0B6C0883E910508F409
:101090005BC113C1811550E2950708F455C19F70DB
:1010A000ACC0811564E59607D8F4C11583E5D8076F
:1010B00008F0E2C0C11521E5D20740F4C11540E5B2
:1010C000D40708F0A7C0DF70D06A3EC1C11552E551
:1010D000D50708F0BBC0DC2FCC27C16FD06A34C164
:1010E000811566E5960750F4C11585E5D80708F027
:1010F000D9C0DC2FCC27C46FD06A26C1811528E562
:10110000920708F4DAC0811549E5940708F4D0C0C5
:1011100090568115904208F0D0C08D2F8F710E949B
:10112000250ADD27D0628F71D82B0EC1805C910912
:1011300064C0853A910509F4C3C0863A910509F067
:10114000C2C0C2E8D0E400C1883A910509F4BEC02B
:10115000893A910509F4BDC08A3A910509F4BCC0E9
:101160008B3A910509F4BBC08C3A910509F4BAC0D9
:101170008B3B910509F4B9C08C3B910509F4B8C0CB
:101180008D3A910509F4B7C0803B910509F4B6C0CA
:101190008E3A910509F4B5C08F3A910509F4B4C0AF
:1011A000813B910509F4B3C0823B910509F4B2C0BB
:1011B000833B910509F4B1C0843B910509F4B0C0AB
:1011C000853B910509F4AFC0863B910509F4AEC09B
:1011D000873B910509F4ADC0883B910509F4ACC08B
:1011E000893B910509F4ABC08A3B910509F4AAC07B
:1011F000C0E0D4E4A9C0D065A7C00E940808EC01F3
:10120000A3C09927D3FF03C0EC01D86C9DC0EC01AB
:10121000D06C9AC02C2F237081E090E002C0880F20
:10122000991F2A95E2F79C689E0144E03695279520
:101230004A95E1F72370922BCF70C695C69560E270
:10124000C69FE0011124C82BD92B7EC02C2F2695D8
:10125000269580E2289F90011124C370DD2781E04C
:1012600090E0AC0102C0440F551FCA95E2F7EA01B5
:10127000C22BD32BDC6868C02C2F2695269580E2E4
:10128000289F90011124C370DD2781E090E0AC011C
:1012900002C0440F551FCA95E2F7EA01C22BD32BB7
:1012A000DA6852C0CF71DD27DC2FCC27D0624CC06A
:1012B000DC2FCC27C06FD06A47C0C0E0D0E044C06C
:1012C000C1E8D0E441C0C3E8D0E43EC0C2EED4E4FB
:1012D0003BC0C9EED4E438C0CAEED4E435C0C5EB97
:1012E000D4E432C0C6EBD4E42FC0C3EBD4E42CC0AA
:1012F000C4EBD4E429C0C7EBD4E426C0CCECD4E4DE
:1013000023C0CDECD4E420C0C3E8D5E41DC0CAE8B6
:10131000D5E41AC0C2E9D5E417C0C4E9D5E414C0C5
:10132000C1E2D6E411C0C3E2D6E40EC0C4E2D6E402
:101330000BC0C5E2D6E408C0C6E2D6E405C0C7E2E9
:10134000D6E402C0CAE2D6E4CE01DF91CF9108957F
:101350008238910549F1B0F48133910509F458C000
:1013600048F48932910509F44EC08A32910509F496
:1013700054C008958533910509F440C0893391051F
:1013800099F00895833E910529F138F4803E910546
:1013900091F0823E9105A1F00895863E9105F9F005
:1013A000873E910531F108952091C50220FD3AC094
:1013B00021FD38C008958091C50280FD35C032C03E
:1013C0008091C50282FF32C08091C50284FD30C089
:1013D00083EE39C08091C50282FD28C0F5CF80918F
:1013E000C50283FF27C08091C50284FD21C087EE1E
:1013F0002AC08091C50283FD1DC0F5CF8091C50232
:1014000085FD1AC01BC08091C50285FD17C014C0A0
:101410008091C50286FD14C015C08091C50286FD6D
:1014200011C00EC080EE0FC089E30DC082EE0BC06C
:1014300080E009C086EE07C089E205C085E303C0ED
:101440008AE201C081E390E00895CF93C82F0E9403
:10145000FB1F90E09093C6028093C50282FF0DC0EF
:101460009C2F9871983019F4C77FC46006C09C2FD8
:101470009471943011F4CB7FC86083FF0DC09C2F12
:101480009871983119F4C77EC46106C09C2F94717D
:10149000943111F4CB7EC86184FDC77E8C2FCF912F
:1014A000089508950F931F93CF93FB01228121117B
:1014B00002C0C1E041C08C01C0917A01C11125C0B8
:1014C00086319C45B1F70E94510A81E080937A01F0
:1014D0000E94F920909379018093780110926D0118
:1014E00010926F0110926E011092710110927001B2
:1014F0001092730110927201109275011092740192
:10150000109277011092760117C080917801909126
:1015100079010E940521883C910558F690916D0152
:10152000E92FF0E0EE0FFF1FE259FE4F1183008319
:101530009F5F90936D01C0E08C2FCF911F910F9111
:101540000895089585B7806885BF85B7806885BF91
:10155000ACE4B1E041E050E025E02A0F8D91E82FA6
:10156000E295EF70F0E031A18F70BA0102C0660F12
:10157000771F8A95E2F7CB01962F9095932391A33D
:1015800092A1892B82A32A13E9CFADE3B1E041E018
:1015900050E02FE02A0F8D91E82FE295EF70F0E0F8
:1015A00031A18F70BA0102C0660F771F8A95E2F7EA
:1015B000CB01962F9095932391A392A1892B82A37F
:1015C0002A13E9CFE5E8F1E0ABE7B1E0119211921F
:1015D0001D921D9271E0EF38F707C1F70C94DB07FD
:1015E0002F923F925F926F927F928F929F92AF92D3
:1015F000BF92CF92DF92EF92FF920F931F93CF9300
:10160000DF932CE4C22E21E0D22E0BE711E0E8019B
:10161000EE24E394F12C662463945E018880998023
:1016200019821882D6018D916D01E82FE295EF7035
:10163000F0E021A18F70A70102C0440F551F8A95C9
:10164000E2F7CA01242B21A322A1742E7094272132
:1016500022A350EA5A95F1F79DE3292E91E0392E05
:1016600020E030E0D1017D911D01472F42954F7060
:1016700050E0DA0190965C90488159817F70D701E3
:1016800002C0AA0FBB1F7A95E2F7BD01652141F4A4
:10169000B701022E02C0660F771F0A94E2F702C05C
:1016A00060E070E0462B572B598348832F5F3F4FF4
:1016B0002F303105B9F691A1792271A292A1892B1F
:1016C00082A32296F501808191818816990641F0C6
:1016D00060928F010E94F920909391018093900174
:1016E000F1E0C538DF0709F098CF80918F0188239A
:1016F000B1F080919001909191010E94052106978F
:1017000070F0E5E8F1E0D8018D919D918D01819314
:101710009193B1E005381B07B1F710928F010E9439
:10172000DD0781E0DF91CF911F910F91FF90EF9046
:10173000DF90CF90BF90AF909F908F907F906F90F1
:101740005F903F902F900895E82FF0E0EE0FFF1F7D
:10175000EB57FE4F8081918108950895CF93DF93D9
:10176000813020E89207D0F0FB0122812223B1F0E2
:10177000EC0180919201811109C08CE090E00E94FF
:10178000AD2F0E94D20B81E0809392010E94D90B71
:10179000CE019F770E94A10C0E94550C81E0DF9141
:1017A000CF91089580939301682F8CE090E00C9482
:1017B000C12FE0912B01F0912C0180818093860252
:1017C00081FF03C081EE0E9444168091860285FF4E
:1017D00003C085EE0E9444168091860280FF03C0FC
:1017E00080EE0E9444168091860284FF03C084EE3E
:1017F0000E9444168091860282FF03C082EE0E94FE
:1018000044168091860286FF03C086EE0E9444162D
:101810008091860283FF03C083EE0E94441680916C
:10182000860287FF03C087EE0E94441680919301D1
:10183000823001F1A8F48823C9F0813079F580EE77
:101840000E944D1581EE0E944D1588E10E944D15B4
:1018500088E10E94441681EE0E94441680EE1CC06E
:10186000843081F08530D1F486EE01C082EE0E9492
:101870004D1514C082EE0E944D1587E50E944D154E
:1018800087E50AC086EE0E944D1586EE0E9444163A
:1018900088E10E944D1588E10E9444168FE39CE97F
:1018A0000197F1F700C00000089580919301813005
:1018B00049F030F0823021F0853051F486EE06C0D8
:1018C00082EE04C08CE20E944D158CE20E94441608
:1018D0008091860281FF03C081EE0E944D158091A8
:1018E000860285FF03C085EE0E944D158091860219
:1018F00080FF03C080EE0E944D158091860284FF18
:1019000003C084EE0E944D158091860282FF03C0C1
:1019100082EE0E944D158091860286FF03C086EEFE
:101920000E944D158091860283FF03C083EE0E94C2
:101930004D158091860287FF03C087EE0C944D15EC
:101940000895EF92FF921F93CF93DF937C01CCE039
:10195000D0E097010C2E02C0369527950A94E2F745
:10196000122F1F70812F0E94E1070E944D15812FB9
:101970000E94E1070E9444162497CC3F8FEFD807BE
:1019800041F7DF91CF911F91FF90EF900895EF9273
:10199000FF920F931F93CF93DF93E901662309F41E
:1019A0004BC0242F30E0EFEFF0E0E61BF109B90166
:1019B000E69F9001E79F300DF69F300D1124232FF5
:1019C0008B01031B11095CE3E52EF12CB7010E948A
:1019D0007F2FFB01BC01069FC001079F900D169F42
:1019E000900D1124B7010E947F2FE230F105B1F074
:1019F00040F4309779F0319711F5832F242F461B4F
:101A000021C0E430F105A1F068F03597C1F4842FCE
:101A1000861B18C0832F262F230F14C0862F830FF9
:101A2000E42F03C0E42FE61B842F432F2E2F0AC080
:101A3000842F462F430F06C0842F242F03C080E03D
:101A400020E040E0E42FF0E0EC55FA4F4491E22F23
:101A5000F0E0EC55FA4F9491E82FF0E0EC55FA4F96
:101A6000E49149839883EA83DF91CF911F910F918D
:101A7000FF90EF90089588E090E00C94B52FAB01B3
:101A8000BC0188E090E00C94D32FE7E8F2E083E01B
:101A90008083109288028FEF828383836091870214
:101AA000709188028091890290918A020C943F0D76
:101AB0006091870260FF06C066956F7370E080E0FA
:101AC00090E0089560E070E0CB0108958091870276
:101AD00080FF06C060E170E08FE892E00C94A312F2
:101AE00080E090E0FC01E157FD4F118210821282EC
:101AF000039680339105B1F7EDCF9091870290FF67
:101B00000FC020E030E0F901E157FD4F8183608391
:101B100042832D5F3F4F20333105A9F70C94660DAA
:101B20000895EF92FF920F931F93CF93DF9300D00E
:101B30001F92CDB7DEB700918702109188022091E5
:101B4000890230918A0200938B0210938C022093B9
:101B50008D0230938E022091870220FF21C0042F36
:101B6000F62EE92E182F9E012F5F3F4F0E94C70CC3
:101B700080918B0210FB87F980938B0216958091E0
:101B80008C028078182BE0FA17F910938C02F092EF
:101B90008D0200938E024B8169818A810E947D0DA6
:101BA0000F900F900F90DF91CF911F910F91FF90A9
:101BB000EF9008958F929F92AF92BF92CF92DF9253
:101BC000EF92FF920F931F93CF93DF93EC01062FB9
:101BD000142F8091870280FF8EC0982F9E779230BD
:101BE00021F4CE010E94910D5CC0E82FE695EF73C1
:101BF0009EE39E0F9F73943018F410918A0251C097
:101C00009AE39E0F9F73993070F4881F8827881F6E
:101C100090918802292F220FC22FC82B97FB99275A
:101C200090F9D92F3EC087E28E0F8F738A30C8F5A6
:101C3000F0E07997E0FD02C021E001C02FEFEE7FD8
:101C4000E657FA4F85919491AC0184E056954795FB
:101C50008A95E1F724036001259FD00C11244E01E1
:101C600088E9881A8EEF980A9FE8E92E92E0F92E0B
:101C700028E6A22EBB24B394C401B5010E947F2F95
:101C80009701412F602F0E94C70C8C0C9D1C93E084
:101C9000E90EF11C8FEBE81682E0F80669F70E9466
:101CA000660D809187029C2FC0FB87F98093870285
:101CB0009695809188028078892BD0FB87F9809354
:101CC00088020093890210938A02609187027091C2
:101CD00088028091890290918A02DF91CF911F91B1
:101CE0000F91FF90EF90DF90CF90BF90AF909F90BB
:101CF0008F900C943F0DDF91CF911F910F91FF902A
:101D0000EF90DF90CF90BF90AF909F908F9008950D
:101D1000E7E8F2E02081221F2227221F309188026B
:101D2000432F440F842F822B37FB992790F941963C
:101D300068E671E00E94932F438162810C94DA0D72
:101D400020918702221F2227221F30918802432FD1
:101D5000440F842F822B37FB992790F9813191050D
:101D60001CF4895A9E4F01C0419768E671E00E94B9
:101D7000932F40918A02609189020C94DA0D609150
:101D80008902862F90E0883F910514F4685F01C0B6
:101D90006FEF80918702881F8827881F90918802A3
:101DA000292F220F97FB992790F940918A02822BC5
:101DB0000C94DA0D60918902862F90E0089714F058
:101DC000685001C060E080918702881F8827881FC3
:101DD00090918802292F220F97FB992790F9409123
:101DE0008A02822B0C94DA0D40918A02842F90E0B3
:101DF000883F910514F4485F01C04FEF809187023E
:101E0000881F8827881F90918802292F220F97FB0F
:101E1000992790F960918902822B0C94DA0D4091F8
:101E20008A02842F90E0089714F0485001C040E0E7
:101E300080918702881F8827881F90918802292F08
:101E4000220F97FB992790F960918902822B0C94BD
:101E5000DA0D9091870290FF42C09178811102C003
:101E6000926007C0833210F0946403C08F73880FB0
:101E7000982B9093870260918702709188028091DD
:101E8000890290918A020E943F0D80918702982FCB
:101E90009E77923019F41092A90110C0982F969550
:101EA0009F732EE3290F2F73273120F491E0909335
:101EB000A90104C0995D9F739A3068F3881F882731
:101EC000881F90918802292F220F97FB992790F95C
:101ED00040918A0260918902822B0C94DA0D089558
:101EE0008091560281608093560281E08093AA011E
:101EF0000E94DE1F811104C00E94BD1F0E94450D7B
:101F00000E943B0D60938702709388028093890240
:101F100090938A026E7761F40E94450D0E943B0DFA
:101F200060938702709388028093890290938A025B
:101F300081E08093A9018091870280FF04C086958B
:101F40008F730C94290F08958091870286958F7363
:101F50008F5F833208F081E00C94290F8091870213
:101F600086958F73815009F482E20C94290FCF93E8
:101F7000DF93C7E8D2E0888181608883609187021F
:101F8000709188028091890290918A020E943F0D8F
:101F9000888186958F73DF91CF910C94290FE7E8A4
:101FA000F2E080818E7F8083609187027091880249
:101FB0008091890290918A020E943F0D1092A9019E
:101FC0002FEF80E792E0215080409040E1F700C081
:101FD00000000C94660D8091870280FD0C94CF0F59
:101FE0000C94B70FCF93C82F8091A7019091A801AF
:101FF0000E940521EC2FF0E0E056FA4FE491F0E06A
:102000008E179F0708F443C00E94F9209093A801FF
:102010008093A7016091A60170E080E090E00E94AB
:10202000802D20E030E04FE753E40E94A32C2BEDFD
:102030003FE049E450E40E94A92E0E94162F0E941E
:102040001D2D2BE43AE34EE25FE30E94362C20EF95
:102050003BEF48ED52E40E94A92E0E944F2D462FDF
:1020600080918702881F8827881F90918802292FD6
:10207000220F97FB992790F960918902822B0E9489
:10208000910D8091A60190E001968093A601CF91D9
:102090000895CF93C82F8091A4019091A5010E942B
:1020A0000521EC2FF0E0E356FA4FE491F0E08E17B3
:1020B0009F07E8F00E94F9209093A5018093A40166
:1020C00040918A02609189028091A2019091A301BE
:1020D0000E94910D8091A2019091A301019668E662
:1020E00071E00E947F2F9093A3018093A201CF9172
:1020F0000895CF92DF92FF920F931F93CF93DF93B8
:10210000F82E8091A0019091A1010E940521EF2D50
:10211000E695F0E0E656FA4FE491F0E08E179F075F
:10212000F0F10E94F9209093A1018093A0010FE8A3
:1021300012E0C0E0D0E088E6C82EDD24D394809180
:102140009E0190919F018C0F9D1FB6010E947F2FD1
:10215000980140918A02609189020E94C70C66969C
:102160000D5F1F4FC03681E0D80749F70E94660D0A
:1021700020919E0130919F01F0FE0BC0C901019694
:1021800068E671E00E947F2F90939F0180939E01EB
:1021900006C02150310930939F0120939E01DF91A9
:1021A000CF911F910F91FF90DF90CF900895AF9244
:1021B000BF92CF92DF92EF92FF920F931F93CF9334
:1021C000DF93C82F80FF02C01FEF01C011E0809194
:1021D0009C0190919D010E940521C695EC2FF0E095
:1021E000E956FA4FE491F0E08E179F0708F465C0B6
:1021F0000E94F92090939D0180939C012FE8C22EAC
:1022000022E0D22E31E9E32E32E0F32EC0E0D0E01E
:10221000F70131971082F6011082F701108294E0E5
:10222000A92EB12C00E080919B01800F87FD805F7B
:10223000082E000C990BC817D907E9F480918A027F
:102240008A9DA0018B9D500D11245595479555955C
:10225000479580918702881F8827881F9091880260
:10226000592F550F97FB992790F996016091890294
:10227000852B0E94C70C010FF1E0AF1AB10899F647
:10228000219683E0C80ED11CE3E0EE0EF11CC031B4
:10229000D10509F0BDCF0E94660D80919B011130E0
:1022A00031F4811102C08FE006C0815004C090E07B
:1022B00001968F70992780939B01DF91CF911F9199
:1022C0000F91FF90EF90DF90CF90BF90AF90089567
:1022D000EF92FF920F931F93CF93DF93C82F8091BC
:1022E000990190919A010E940521EC2FF0E0EC56A3
:1022F000FA4FE491F0E08E179F0708F464C00E9443
:10230000F92090939A018093990180E090E0FC017C
:10231000E157FD4F1182108212820396803391059E
:10232000B1F78FE8E82E82E0F82E01E912E0C0E074
:10233000D0E080919801082E000C990BC817D9079E
:10234000ECF080912901082E000C990B8C179D0749
:10235000ACF080918702881F8827881F909188029F
:10236000592F550F97FB992790F9970140918A02B1
:1023700060918902852B0E94C70C07C0F801319734
:102380001082F7011082F80110822196F3E0EF0E1F
:10239000F11C0D5F1F4FC031D10559F60E94660D2B
:1023A0008091280190919801980F90939801209125
:1023B0002901280F20932901121614F49F301CF0D4
:1023C000819580932801DF91CF911F910F91FF900C
:1023D000EF900895EF92FF920F931F93CF93DF93A7
:1023E00080919601909197010E940521883E93402B
:1023F000D0F10E94F9209093970180939601C091AB
:102400009401D09195012196C170DD27D09395015B
:10241000C09394018FE8E82E82E0F82E10E008E7E0
:10242000812F8695FE01E80FF11DCF01817099275C
:10243000970140918A0260918902FC010E9FC001C0
:102440000F9F900D11240E94C70C1F5FF3E0EF0E49
:10245000F11C103129F7DF91CF911F910F91FF905F
:10246000EF900C94660DDF91CF911F910F91FF902B
:10247000EF9008958091A901882391F190918702AE
:10248000892F86958F732EE3280F2F73243018F42D
:1024900082500C94F20F2AE3280F2F73233018F484
:1024A00086500C94491027E3280F2F73263018F418
:1024B00089500C94791021E3280F2F73263018F4DB
:1024C0008F500C94D7102BE2280F2F73233018F461
:1024D00085510C9468119E77903311F40C94EA1195
:1024E00008952EB1342F309523233EB1432B3FB7AF
:1024F000F894FC01680F791FE617F70789F08191BE
:1025000098E04EB9000000C087FF2EB9880F000088
:1025100000C000C000C02EB900C09A9591F7ECCF62
:102520003FBF08952DB1242B2DB99B01220F331FDE
:10253000620F731F0E94711287EC90E00197F1F710
:1025400000C00000089544E00C949212CF93DF93F2
:10255000FC012785211116C0EC0181E08787878166
:102560000E94811F88850E94941F0E944B1FEA8150
:10257000FB816A897B89CE010696309719F0DF913D
:10258000CF910994DF91CF910895EF92FF920F932D
:102590001F93CF93DF93FC012085211134C0EC0100
:1025A000E380F480F7E5FF1A24E12E9DC0012F9D02
:1025B000900D1124DC01A050BF4F1496ED91FC91B9
:1025C000159752966D917C9153978A5F9E4F3097E5
:1025D00009F0099584E18E9D80018F9D100D1124D5
:1025E00000501F4FF80187810E94871FF8018085E6
:1025F0000E949A1F0E944B1F18821F8219861092F8
:10260000AC011092AB01DF91CF911F910F91FF9020
:10261000EF900895DF92EF92FF920F931F93CF9365
:10262000DF93FB012281222379F120912A012F3FA0
:1026300059F18C01C6E0D1E0E12CF12CDD24D394DA
:1026400080912A01082E000C990B8E159F05E4F04D
:1026500088818823A1F08B819C810817190739F4A0
:102660008091AB019091AC010817190741F0DF820E
:10267000CE0106970E94A612CE010E94C512FFEF5E
:10268000EF1AFF0A6496DCCFDF91CF911F910F9173
:10269000FF90EF90DF900895EF92FF920F931F93BA
:1026A000CF93DF939C0137552F3F310511F008F090
:1026B00047C040912A01042E000C550B42175307C6
:1026C00014F420932A01FB017C01828194E1929F02
:1026D0008001939F100D1124E801C050DF4F8E87B9
:1026E00092818E81992311F1FA86E9868F5F8E831C
:1026F0000E94F9209C878B870E94BA1F8F830E94BB
:102700007E1F88870E94911F9885892B8887E88182
:10271000F9816A897B89C8018A5F9E4F309709F0E9
:102720000995F092AC01E092AB010AC0882341F018
:102730008F85882329F0C8018A5F9E4F0E94C512A9
:1027400081E0DF91CF911F910F91FF90EF9008955D
:10275000CF92DF92EF92FF920F931F93CF93DF936D
:1027600080912A018F3FC1F1C0E0D4E12C2F30E0ED
:1027700080912A01082E000C990B8217930764F1AF
:10278000D29FF001D39FF00D1124E050FF4FE0885D
:10279000F188E114F10419F488ECE82EF12CD29FB1
:1027A0006001D39FD00C1124860100501F4FF80107
:1027B0008681882379F0838594850E940521E81617
:1027C000F90640F4C8010E94A612C6018A5F9E4F16
:1027D0000E94C512CF5FCACFDF91CF911F910F9199
:1027E000FF90EF90DF90CF9008959093B201809387
:1027F000B1010895E091B101F091B201309721F05B
:102800000190F081E02D099480E00895E091B101FC
:10281000F091B201309721F00280F381E02D09940C
:102820000895E091B101F091B201309721F0048058
:10283000F581E02D099408952091AF013091B00108
:102840008217930771F09093B0018093AF01E091EC
:10285000B101F091B201309721F00680F781E02DAF
:10286000099408952091AD013091AE01821793072C
:1028700071F09093AE018093AD01E091B101F091C0
:10288000B201309721F00084F185E02D099408957C
:1028900008950C94481481E008950E94F0200E944D
:1028A000A20A0E94C5210E94700FE5ECF2E080812F
:1028B0008068808308954F925F927F928F929F925B
:1028C000AF92BF92CF92DF92EF92FF920F931F933E
:1028D000CF93DF93CDB7DEB72A970FB6F894DEBF5C
:1028E0000FBECDBF0E94F00A0E944B14811111C08F
:1028F0008FEF89838A831B820E94F9208160782F61
:102900009D838C8349815A816B818D810E94191529
:1029100057C094EBC92E91E0D92E00E010E0AA2414
:10292000A394B12C702E802F0E94A40B4C01F601B1
:10293000419051906F01482659264114510431F4B9
:102940000F5F1F4F0530110569F7D2CF80915602F6
:1029500081FD0E94AD0B20E030E07501022E02C027
:10296000EE0CFF1C0A94E2F7C70184219521892B04
:1029700009F12E837F828E209F2091E0892809F41F
:1029800090E098870E94F9208160782F9A87898744
:102990004E815F8168858A850E941915000F111F7D
:1029A000F801EC54FE4F80819181E826F926F182EE
:1029B000E08206C02F5F3F4F2F30310571F6C0CF48
:1029C0000E9468241091B3010E94FA131817D9F0DD
:1029D0000E94FA138093B3012A960FB6F894DEBFD3
:1029E0000FBECDBFDF91CF911F910F91FF90EF9060
:1029F000DF90CF90BF90AF909F908F907F905F902F
:102A00004F900C94F0072A960FB6F894DEBF0FBED5
:102A1000CDBFDF91CF911F910F91FF90EF90DF908D
:102A2000CF90BF90AF909F908F907F905F904F908E
:102A30000895CF93DF93CDB7DEB72B970FB6F894F9
:102A4000DEBF0FBECDBF4F83588769877A878B87DC
:102A5000DE01119686E0FD0111928A95E9F785E085
:102A6000FE01379601900D928A95E1F749815A81CE
:102A70006B817C818D819E810E94241C2B960FB6D8
:102A8000F894DEBF0FBECDBFDF91CF910895FC015A
:102A9000808191810E94EC1E0895882309F4F3C07F
:102AA000682F8238C1F40E94FA1381FDECC069E3FB
:102AB00080912B0190912C010E9460200E944B1F5D
:102AC0002FEF81EE94E0215080409040E1F700C06C
:102AD000000069E319C08338F9F40E94FA1380FDFD
:102AE000D2C063E580912B0190912C010E9460205F
:102AF0000E944B1F2FEF81EE94E0215080409040C8
:102B0000E1F700C0000063E580912B0190912C015A
:102B10000E946B200C944B1F8438C1F40E94FA135E
:102B200082FDB1C067E480912B0190912C010E943D
:102B300060200E944B1F2FEF81EE94E021508040D7
:102B40009040E1F700C0000067E4DECF8CEF860F15
:102B5000813A38F480912B0190912C010E946020E1
:102B6000D9CF80E2860F883048F4677081E001C0D9
:102B7000880F6A95EAF70E94811FCCCF8BE5860FFC
:102B8000833070F4653A29F0663A31F083E890E0DA
:102B900005C081E890E002C082E890E00C941C142B
:102BA00088E5860F853108F06EC0683A61F1693AB0
:102BB00069F16A3A71F16B3A79F16C3A81F16B3BE8
:102BC00089F16C3B91F16D3A99F1603BA1F16E3A5C
:102BD000A9F16F3AB1F1613BB9F1623BC1F1633BDD
:102BE000C9F1643BD1F1653BD9F1663BE1F1673B4B
:102BF000E9F1683BF1F1693BF9F16A3B09F43FC047
:102C000080E090E03EC082EE90E03BC089EE90E034
:102C100038C08AEE90E035C085EB90E032C086EB9C
:102C200090E02FC083EB90E02CC084EB90E029C0B3
:102C300087EB90E026C08CEC90E023C08DEC90E018
:102C400020C083E891E01DC08AE891E01AC082E9C3
:102C500091E017C084E991E014C081E292E011C0D4
:102C600083E292E00EC084E292E00BC085E292E043
:102C700008C086E292E005C087E292E002C08AE2E4
:102C800092E00C9432140895882309F45BC0682FF5
:102C9000823879F40E94FA1381FF54C069E380916D
:102CA0002B0190912C010E9460200E944B1F69E330
:102CB00010C08338B1F40E94FA1380FF43C063E56B
:102CC00080912B0190912C010E9460200E944B1F4B
:102CD00063E580912B0190912C010E946B200C9454
:102CE0004B1F843879F40E94FA1382FF2BC067E4EB
:102CF00080912B0190912C010E9460200E944B1F1B
:102D000067E4E7CF8CEF860F813A18F380E2860FF5
:102D1000883048F4677081E001C0880F6A95EAF74F
:102D20000E94871FDCCF8BE5860F833020F480E084
:102D300090E00C941C14685A653120F480E090E017
:102D40000C9432140895882321F00E94811F0C9462
:102D50004B1F0895882321F00E94871F0C944B1F5E
:102D600008954F925F926F927F92AF92BF92CF92EF
:102D7000DF92EF92FF920F931F93CF93DF931F92F7
:102D8000CDB7DEB77C01A72EFC01058102950F703F
:102D90001281112321F069830E94A11F6981698337
:102DA0000E94441F6981882381F0112371F080E221
:102DB000860F883050F082E00E942D1F0E94441F31
:102DC00091E0B82EB926698101C0B12CCA2CC294F9
:102DD0008FE0C822D12CF601E859FF4F0C94A72FA1
:102DE0008A2D807F0A2D0F70882311F00295007FB5
:102DF0001123C1F0002309F4DCC180E2860F883082
:102E000010F0611105C0802F69830E94811F04C0EA
:102E1000802F69830E94941F698169830E944B1FE0
:102E20006981C7C1862F69830E9444166981002386
:102E300009F4E2C180E2860F883010F0611104C00D
:102E4000802F0E94871F03C0802F0E949A1F0E941C
:102E50004B1FD2C18A2D807F9A2D9F70803211F432
:102E6000892F03C0892F8295807F662319F06130F6
:102E7000B1F01FC0112349F0002309F452C1013001
:102E800009F04FC10E94B41FB7C1002319F00130EF
:102E900009F4B2C189830E94B71F898148C11123F7
:102EA00021F0063008F0A8C13CC1053008F0A4C1EB
:102EB0003EC1112351F0002309F433C1F70195817C
:102EC00090FF77C19F7095832CC1002309F42FC117
:102ED00081C18A2D86958695837090E0009719F0C0
:102EE000019761F089C1112321F0862F9A2D9370EB
:102EF00002C080E090E00E941C148EC1112321F0DA
:102F0000862F9A2D937002C080E090E00E943214C8
:102F100083C11123F9F0653F51F0663F71F0643FC2
:102F2000A9F48091BF029091C00281600BC0809192
:102F3000BF029091C002826005C08091BF02909153
:102F4000C00284609093C0028093BF02862F0E94CB
:102F500070231EC0653F51F0663F71F0643FA9F4D5
:102F60008091BF029091C0028E7F0BC08091BF0202
:102F70009091C0028D7F05C08091BF029091C002E8
:102F80008B7F9093C0028093BF02862F0E94D8232C
:102F90000E945D2441C18A2D837009F052C0111135
:102FA00037C1862F829586958770880F880F962F58
:102FB0009F70492E512C612C712C082E04C0440C9A
:102FC000551C661C771C0A94D2F764FF14C00FE0EE
:102FD00010E020E030E0B901A80104C0440F551F03
:102FE000661F771F8A95D2F7CB01BA01609570955D
:102FF0008095909503C060E070E0CB012A2D269566
:103000002695237030E02230310569F023303105F8
:1030100089F064297529862997292130310571F0B5
:103020000E94671DF5C064297529862997290E9489
:10303000791DEEC00E94671DC301B2010E94551D9B
:10304000E7C0112319F08A2D817001C0869588236D
:1030500009F4DEC0862F829586958770880F880FC9
:10306000962F9F70492E512C612C712C082E04C074
:10307000440C551C661C771C0A94D2F764FF14C0DC
:103080000FE010E020E030E0B901A80104C0440FD7
:10309000551F661F771F8A95D2F7CB01BA0160953D
:1030A00070958095909503C060E070E0CB012A2D6B
:1030B000269526952370422F50E04230510569F045
:1030C0004330510589F064297529862997294130B3
:1030D000510571F00E942D1E9BC064297529862917
:1030E00097290E943F1E94C00E942D1EC301B20169
:1030F0000E941B1E8DC0862F90E0FC01E05EF1094E
:10310000E531F10508F051C0E858FF4F0C94A72FA6
:10311000062F0F708A2D8F71112331F00E94B41D7C
:10312000802F0E94A31668C00E94D51D802F0E9488
:10313000AA1662C0112341F0053008F05DC08A2D47
:103140008F710E94FA1D58C0063008F055C0F7CFA5
:10315000112339F08A2D8F710E94B41D4DC01123A7
:10316000C9F38A2D8F710E94D51D46C0112329F005
:103170008A2D8F710E949F1D3FC00E949A1D3CC0E6
:10318000112351F01A2D1F71812F0E94B41D63E08D
:10319000812F0E94241F30C081E00E942D1F023029
:1031A00058F182E00E942D1F27C0112331F0002327
:1031B00089F2862F0E944D151FC0002391F26933BA
:1031C00049F45FEF77EE83E0515070408040E1F7C3
:1031D00000C00000862F0E9444160EC04A2D4F707A
:1031E000C7010E94F2070E94C81C16C04A2D4F70EA
:1031F000C7010E94F50710C098E0C916D10441F03C
:103200005CF0FAE0CF1AD10822E0C216D10420F413
:103210000E94FA130E94F007BB2001F10E94201FB8
:1032200080FD1CC0F70112820E941A1F0E94B41D6B
:10323000C7010E943E190E941A1F0F90DF91CF9183
:103240001F910F91FF90EF90DF90CF90BF90AF90C4
:103250007F906F905F904F900C94D51D0F90DF91F1
:10326000CF911F910F91FF90EF90DF90CF90BF9083
:10327000AF907F906F905F904F9008950F931F9342
:10328000CF93DF93EC01888199812B813C81232BA3
:10329000B9F09F3F11F48F3F99F0CE010E94CC040A
:1032A000882371F0688179818A810E94F71E8C01E0
:1032B0000E94511E0E94521DB801CE010E94B116FB
:1032C000DF91CF911F910F9108950E94A11F0E943D
:1032D000B11F80912B0190912C010E9476200E94B9
:1032E0004B1F0E94F6240E945D2480E090E00E9423
:1032F0001C1480E090E00C9432140E948E1F0C94F9
:1033000065190E94EC1EE92FE295EF70F0E032970C
:10331000EE30F105B0F4E357FF4F0C94A72F803F38
:1033200091F018F4803E68F40EC0843F51F40BC055
:10333000803E48F0813F29F406C093FB882780F93E
:10334000089580E0089581E00895CF93DF9300D041
:1033500000D01F92CDB7DEB70F900F900F900F9057
:103360000F90DF91CF910895CF93DF9300D000D0DD
:1033700000D0CDB7DEB726960FB6F894DEBF0FBEED
:10338000CDBFDF91CF9108951F93CF93DF93C0916D
:10339000BF0116E08091C001C81799F0D0E01C9FD2
:1033A000F0011D9FF00D1124EF53FE4F408151811C
:1033B00062817381848195810E94B4192196C770BE
:1033C000E9CFDF91CF911F9108954091F101509184
:1033D000F2016091F3017091F4018091F5019091F7
:1033E000F6010C94B4198091F60182958F7009F062
:1033F00054C08091F301882309F44FC08091BF012C
:10340000A091C0016091F1017091F2014091F4012D
:103410005091F501B6E08A1709F43FC090E04115DC
:103420005105C1F17F3F11F46F3FA1F1B89FF00149
:10343000B99FF00D1124EF53FE4F218172132AC062
:103440002081621327C02281211124C0238134816D
:103450002417350710F421503109241B350B283C63
:103460003105C0F42091F6012F7020612093F60100
:1034700026E0289FF001299FF00D1124EA53FE4F0A
:1034800080818F708061808381EF91E00E943E197E
:103490000C94C41901968770BECF0895CF92DF9225
:1034A000EF92FF920F931F93CF93DF93CDB7DEB7C9
:1034B00062970FB6F894DEBF0FBECDBF8C0185E0DA
:1034C000F801DE011D9601900D928A95E1F7D80171
:1034D0004C9111965C91119712966C9112971396DC
:1034E000CD90DC9014973091F1017091F2018091B0
:1034F000F4019091F501009709F46BC17F3F19F435
:103500003F3F09F466C1E090F301EE2009F4C0C02A
:103510002091F601C816D90628F0F601E81BF90B30
:10352000CF0104C0809590958C0D9D1DFF24F394D0
:10353000883C910578F0F12C207F09F0C6C07C2DE5
:10354000D98AC88A89890E94A51981EF91E00E94D1
:103550003E19B1C0822F807F09F046C0751314C098
:10356000341312C0611110C02F7020612093F60136
:103570000E94E51981EF91E00E943E198091F601C9
:10358000D80115968C932EC0CD2819F15F3F11F408
:103590004F3FF9F0F62E61111CC08091BF012091C0
:1035A000C00136E0821709F45AC090E0389FF0015C
:1035B000399FF00D1124EF53FE4F7181571306C050
:1035C0007081471303C07281711103C00196877027
:1035D000E9CFF62E662309F427C18091F6018160B8
:1035E0008093F601F12C20C1751308C0341306C076
:1035F000611104C08091F601D801C3C04D875E8778
:103600008D859E856A8B0E9481196A898823E1F1E4
:103610006623D1F12091F601822F82958F7090E080
:10362000029774F08091F1019091F20198878F8355
:103630001986DB86CA862C87CE0107960E943E1922
:1036400086E0F801A1EFB1E001900D928A95E1F7D3
:103650000E94F3190E94E519FF24F394E5C04D87F9
:103660005E878D859E850E94EC1E292F22952F70E6
:1036700030E0223031050CF0CBC09F7009F0C5C09E
:10368000805E883008F4D0C0C8010E943E19E4CFA3
:10369000C816D90608F453C0F601E81BF90BCF0190
:1036A000883C910508F450C0F12C7C2DD98AC88A39
:1036B00089890E94A519E1EFF1E086E0DF011D9202
:1036C0008A95E9F70E94E519AFC0751314C0341349
:1036D00012C0611110C08091F601F8018583C80104
:1036E0000E943E1986E0E1EFF1E0DF011D928A952C
:1036F000E9F7FE2C99C04D875E878D859E856A8B84
:103700000E9481196A89882309F4BECF662309F4CF
:10371000BBCF2091F601822F82958F7090E00297A7
:103720000CF48ECF8091F1019091F2019A838983FC
:103730001B82DD82CC822E83CE0101967FCF8095C5
:1037400090958C0D9D1DACCFF62E662309F49CCF71
:1037500075132EC034132CC02091F60120FD1FC01C
:10376000822F82958F70D9F0D80115962C931597DA
:103770008F3049F08F5F982F9295907F822F8F70B6
:10378000892B15968C93C8010E943E1986E0F8019A
:10379000A1EFB1E001900D928A95E1F793CF86E019
:1037A000F801A1EFB1E001900D928A95E1F73CC0DC
:1037B0004D875E878D859E850E948119811140CF3E
:1037C0008091F60181608093F601C8010E943E1944
:1037D0002BC0662309F458CF4D875E878D859E8563
:1037E0000E948119F82E882309F44ECF86E0F80153
:1037F000A1EFB1E001900D928A95E1F781EF91E0A0
:103800000E9447150E94F3195DCF811139CF0CC07A
:10381000243031050CF038CF9F7009F431CFF80116
:103820009581907F09F02CCF8F2D62960FB6F8947A
:10383000DEBF0FBECDBFDF91CF911F910F91FF90E3
:10384000EF90DF90CF9008951F93CF93DF93CDB784
:10385000DEB72C970FB6F894DEBF0FBECDBF4F83F7
:10386000588769877A878B879C87CE0107960E9445
:103870004E1A882369F08F8198852A853B85232BF2
:10388000F1F19F3F09F063C08F3F09F060C037C07E
:1038900086E0FE013796DE01119601900D928A9521
:1038A000E1F76F817885EA85FB85309741F17F3FAD
:1038B00011F46F3F21F12091C00130E0C901019660
:1038C000877099274091BF0150E08417950709F44C
:1038D00047C069837A83FD83EC8396E0929FD00191
:1038E000939FB00D1124AF53BE4FFE01319601904E
:1038F0000D929A95E1F78093C0010E94C41916E0D9
:103900008091BF019091C0018917C1F1189FC0013A
:1039100011248F539E4F0E944E1A882379F1E09113
:10392000BF011E9FF0011124EF53FE4F40815181D2
:1039300062817381848195810E94B4198091BF0155
:1039400090E00196877099278093BF01D9CF4F816E
:10395000588569857A858B859C850E94B419CFCF5F
:103960000E947D191092C0011092BF01E1EFF1E0B9
:1039700086E0DF011D928A95E9F7C1CF2C960FB63C
:10398000F894DEBF0FBECDBFDF91CF911F91089598
:10399000EF92FF920F931F93CF93DF938C01892BAC
:1039A00009F46CC0F12CEE24E394E8012196F801AF
:1039B0008491843740F4843008F051C0813081F024
:1039C000823019F15BC0853709F444C0A8F19CE747
:1039D000980F903708F052C08F770E94441641C06C
:1039E0000E5F1F4FFE01C49180E28C0F883048F4B7
:1039F000C7708E2D01C0880FCA95EAF70E94A41FD8
:103A000014C08C2F0E944D152DC00E5F1F4FFE015C
:103A1000C49180E28C0F883058F4C7708E2D01C09D
:103A2000880FCA95EAF70E94AA1F0E944B1F1AC06E
:103A30008C2F0E94441616C00E5F1F4FFE01C491CA
:103A4000CC2381F08FE99FE00197F1F700C00000DF
:103A5000C150F6CF0E5F1F4FFE01F49003C00E94CD
:103A60004D158E018F2D882309F49FCFEFE9FFE0DC
:103A70003197F1F700C000008150F5CFDF91CF9171
:103A80001F910F91FF90EF90089508950E94451D9A
:103A900060932D0270932E0280932F029093300238
:103AA0000C94651908950C94461D0F931F93009173
:103AB0002D0210912E0220912F0230913002602BA6
:103AC000712B822B932B1F910F910C94461D0F93FA
:103AD0001F9300912D0210912E0220912F02309100
:103AE000300260237123822393231F910F910C9442
:103AF000461D0F931F9300912D0210912E022091CD
:103B00002F023091300260277127822793271F915F
:103B10000F910C94461D08950C948B1D0E948C1DD2
:103B20006093290270932A0280932B0290932C02B7
:103B30000C94651960E070E0CB010C948E1D0F931E
:103B40001F9341E050E060E070E08A019B0104C0F7
:103B5000000F111F221F331F8A95D2F7C901B80128
:103B60001F910F910C948E1D0F931F9341E050E015
:103B700060E070E004C0440F551F661F771F8A95F0
:103B8000D2F78091290290912A02A0912B02B09144
:103B90002C028A019B01082B192B2A2B3B2BC901D4
:103BA000B8011F910F910C948E1D0F931F9341E04C
:103BB00050E060E070E004C0440F551F661F771F9F
:103BC0008A95D2F74095509560957095809129021D
:103BD00090912A02A0912B02B0912C028A019B01A4
:103BE000082319232A233B23C901B8011F910F91F0
:103BF0000C948E1D0F931F9341E050E060E070E045
:103C000004C0440F551F661F771F8A95D2F7809115
:103C1000290290912A02A0912B02B0912C028A01D4
:103C20009B01082719272A273B27C901B8011F91A3
:103C30000F910C948E1D0F931F93009129021091E8
:103C40002A0220912B0230912C02602B712B822BA7
:103C5000932B1F910F910C948E1D0F931F93009126
:103C6000290210912A0220912B0230912C0260230C
:103C70007123822393231F910F910C948E1D0F9318
:103C80001F930091290210912A0220912B0230915A
:103C90002C0260277127822793271F910F910C9484
:103CA0008E1D08952FE0929F800D1124A82FA695B8
:103CB000A695A695877051E001C0550F8A95EAF741
:103CC00085E0A89FD001112420E030E070E0F901E8
:103CD000EA0FFB1FE950FE4F4081CB01022E02C0CC
:103CE000969587950A94E2F78170992781958427A4
:103CF0008523842780832F5F3F4F2530310539F797
:103D000008952FE0929F800D1124682F6695669587
:103D10006695982F977085E0689FB001112440E068
:103D200050E080E0FA01E60FF71FE950FE4F2081D6
:103D300030E0092E02C0369527950A94E2F72170EB
:103D40003327042E01C0220F0A94EAF7822B4F5F1B
:103D50005F4F4530510531F70895CF92DF92EF92D2
:103D6000FF920F931F93CF93DF938C01C0902D028E
:103D7000D0902E02E0902F02F09030028091290224
:103D800090912A02A0912B02B0912C02C82AD92A24
:103D9000EA2AFB2ACFE1D0E0D701C6010C2E04C0ED
:103DA000B695A795979587950A94D2F780FF06C098
:103DB000B8018C2F0E941008019721F4219760F719
:103DC00080E001C08C2FDF91CF911F910F91FF9068
:103DD000EF90DF90CF900895CF93DF93EC010E9496
:103DE000AD1EBE010E941008DF91CF9108951F9370
:103DF000CF93DF93EB019091BE01992321F0CB018A
:103E00000E94EC1E13C0882349F0CB010E94AD1E16
:103E1000182F682FCE010E94521E04C0CB010E94B1
:103E2000811E182FBE01812F0E941008DF91CF91B3
:103E30001F91089580913102859585958595089506
:103E4000809131028770089598E0899F9001112434
:103E5000262B209331020C94B41D209131028095C1
:103E6000822380933102982F977069F430E0482FB5
:103E7000082E000C550B2417350729F085958595DC
:103E800085950C94D51D089590913102977081E02D
:103E900009F480E00895E0912B01F0912C018091CC
:103EA00055028083E0912B01F0912C01908180914B
:103EB0005402892B8083E0912B01F0912C01908199
:103EC00080915302892B808380913202882381F074
:103ED000E0912B01F0912C019081892B80838091BE
:103EE0002B0190912C010E9404208111109232022A
:103EF00080912B0190912C010C9406148091550215
:103F0000089590915502892B8093550208958095CC
:103F1000909155028923809355020895109255027D
:103F2000089580915402089590915402892B8093B2
:103F300054020895809590915402892380935402ED
:103F4000089510925402089590915302892B809302
:103F500053020895809590915302892380935302D0
:103F6000089510925302089580933202089510929A
:103F7000320208958091320208956DEE7EEF80E066
:103F800090E00E94DF2F60E082E090E00E94C12F6D
:103F900060E083E090E00E94C12F60E084E090E068
:103FA0000E94C12F60E085E090E00E94C12F40E0B8
:103FB00050E0BA0188E090E00C94D32F80E090E0CC
:103FC0000E94BB2F21E08D3E9E4F09F020E0822F02
:103FD000089582E090E00C94AD2F682F82E090E08D
:103FE0000C94C12F83E090E00C94AD2F682F83E0F8
:103FF00090E00C94C12F84E090E00C94AD2F682FDA
:1040000084E090E00C94C12FFC0131969C01205E6D
:104010003F4F80E0919191118F5FE217F307D1F745
:1040200008959C01FC0132969FEF80E04191461774
:1040300089F09F3F19F4411101C0982F8F5F8E3195
:10404000A9F79F3F39F0F901E90FF11D97FDFA95A6
:10405000628308950895FC0132968096208126138C
:1040600001C010823196E817F907C1F70895262F8D
:104070002695269526952F3168F4FC01E20FF11D57
:10408000677021E030E001C0220F6A95EAF7818174
:10409000282B21830895262F2695269526952F31A6
:1040A00070F4FC01E20FF11D677021E030E001C007
:1040B000220F6A95EAF720958181282321830895AC
:1040C00020913C01222329F02091C50227FD0C9468
:1040D00037200C94112020913C01222329F02091BB
:1040E000C50227FD0C944B200C942B20FC0131962B
:1040F00080961192E817F907E1F708958091CB02B5
:10410000843039F11092570220E488E190E00FB634
:10411000F894A895809360000FBE2093600080E023
:104120000E94F00783B7817F846083BF83B781607B
:1041300083BF7894889583B78E7F83BF0FB6F8943A
:10414000A895809160008861809360001092600063
:104150000FBE089508950895CF930E94AA200E944B
:10416000F00A0E94AB20C0E08C2F0E94A40B892B88
:1041700029F4CF5FC530C1F780E001C081E0CF9165
:1041800008950E947D190E94FA130C94F0071F9263
:104190000F920FB60F9211248F939F93AF93BF93FB
:1041A00080915702811113C08091C1029091C20287
:1041B000A091C302B091C4024196A11DB11D80938C
:1041C000C1029093C202A093C302B093C402BF91F4
:1041D000AF919F918F910F900FBE0F901F901895E8
:1041E00082E084BD93E095BD9AEF97BD80936E0009
:1041F00008952FB7F8948091C1029091C202A091C6
:10420000C302B091C4022FBF0895CF92DF92EF9204
:10421000FF920F931F932FB7F8944091C1025091D2
:10422000C2026091C3027091C4022FBF6A017B0178
:10423000EE24FF248C0120E030E0C016D106E20617
:10424000F30610F4415051099A01281B390BC9019A
:104250001F910F91FF90EF90DF90CF900895789489
:104260001F920F920FB60F9211248F939F93AF93CB
:10427000BF938091C1029091C202A091C302B091FC
:10428000C4020196A11DB11D8093C1029093C20288
:10429000A093C302B093C402BF91AF919F918F913D
:1042A0000F900FBE0F901F90189581E08093E00053
:1042B00080E28093D8001092C9008FE19EE40197BC
:1042C000F1F700C0000087E090EBDC018093D4029E
:1042D0009093D502A093D602B093D7029CE088E1D8
:1042E0000FB6F894A895809360000FBE909360007D
:1042F000FFCFAF92BF92CF92DF92EF92FF920F93D8
:104300001F93CF93C0E0CC24C394D12CE82EF12C82
:104310008C2F0E94A40B5C0100E010E09601002E9F
:1043200002C0220F331F0A94E2F72A213B21232BDC
:1043300031F40F5F1F4F0F30110581F70AC0602F56
:104340007C2F80E00E94F607E816F90691F781E0DD
:1043500004C0CF5FC530E1F680E0CF911F910F918F
:10436000FF90EF90DF90CF90BF90AF900895CF93E4
:10437000C82F8CE20E947921882321F08C2FCF91C5
:104380000C94792180E0CF910895CF930E94DE1F95
:10439000811102C00E94BD1FC5E6C15049F00E94B4
:1043A000F00A8FE39CE90197F1F700C00000F5CF18
:1043B00089E20E94B72181110FC18AE20E94B721D0
:1043C00081110E94BD1F85E00E94B72181110E94CA
:1043D00055210E94E91F8093560287E00E94B72171
:1043E0008823A9F18BE10E94B721882351F08091A5
:1043F000560281FB222720F991E0922790FB81F958
:104400000EC08EE00E94B721882361F08091560291
:1044100082FB222720F991E0922790FB82F980937A
:10442000560215C080E10E94B72190915602882360
:1044300041F093FB222720F981E0822780FB93F94A
:1044400004C0892F809580FB90F99093560280914B
:1044500056020E94ED1F0E94FB1F90E09093C6023F
:104460008093C50280EE0E94B721882341F080919D
:10447000C502982F909590FB80F98093C50289E33F
:104480000E94B721882359F08091C50281FB222721
:1044900020F991E0922790FB81F98093C50282EE8A
:1044A0000E94B721882359F08091C50282FB222700
:1044B00020F991E0922790FB82F98093C50286EE65
:1044C0000E94B721882359F08091C50283FB2227DF
:1044D00020F991E0922790FB83F98093C50283EE47
:1044E0000E94B721882359F08091C50284FB2227BE
:1044F00020F991E0922790FB84F98093C50285E32F
:104500000E94B721882359F08091C50285FB22279C
:1045100020F991E0922790FB85F98093C50281E311
:104520000E94B721882359F08091C50286FB22277B
:1045300020F991E0922790FB86F98093C50281E1F2
:104540000E94B721882359F08091C50287FB22275A
:1045500020F991E0922790FB87F98093C502809122
:10456000C5020E94FF1F87E20E94B721C82F8EE17B
:104570000E94B7218111C2608FE10E94B721811191
:10458000C46080E20E94B7218111C86081E20E946C
:10459000B7218111C06182E20E94B7218111C062FE
:1045A00083E20E94B7218111C06484E20E94B72196
:1045B000882311F0C06802C0CC2329F08C2F0E9400
:1045C000F61F6C2F03C00E94F21F682F70E080E07E
:1045D00090E0CF910C94531DCF91089580915B0290
:1045E00080FF0BC06091300185E0689FB00111240D
:1045F00075956795759567952BC081FF09C060918A
:10460000300185E0689FB00111247595679520C041
:1046100082FF07C06091300185E0689FB0011124DE
:1046200017C090915C029923D1F060912F019617E9
:1046300088F72091300185E0289F90011124929FF6
:10464000A001939F500D112470E0CA010E94932F86
:104650006038710540F46115710539F002C065E0FC
:1046600070E0862F08958FE7089581E00895809186
:104670005B0280FF08C060912E0170E07595679520
:104680007595679521C081FF06C060912E0170E08D
:104690007595679519C082FF04C060912E0170E086
:1046A00010C090915C029923C1F060912D01961782
:1046B000A0F780912E01899FC001112470E00E9413
:1046C000932F6038710528F46115710521F0862F4C
:1046D00008958FE7089581E0089561E070E0F4CFD8
:1046E000803F21F40E94EE22819504C0813F29F48D
:1046F0000E94EE2280935F020895823F21F40E947F
:10470000EE22819504C0833F29F40E94EE2280931B
:104710005E020895893F19F40E94372305C08A3F3D
:1047200031F40E94372381958093600208958B3F76
:1047300021F40E943723819504C08C3F29F40E9404
:104740003723809361020895843F21F480915D02B4
:10475000816017C0853F21F480915D02826011C0A5
:10476000863F21F480915D0284600BC0873F21F475
:1047700080915D02886005C0883F31F480915D02C0
:10478000806180935D0208958D3F21F480915B02EA
:1047900081600BC08E3F21F480915B02826005C076
:1047A0008F3F29F480915B02846080935B020895BF
:1047B000803F39F480915F0287FF6CC010925F02E6
:1047C00069C0813F29F480915F021816BCF362C072
:1047D00090915E02823F29F497FF5CC010925E02C6
:1047E00059C0833F19F41916CCF354C0893F41F4E2
:1047F0008091600218160CF04DC0109260024AC001
:104800008A3F29F48091600287FF44C0F6CF8B3F36
:1048100039F48091610287FF3DC0109261023AC075
:104820008C3F29F4809161021816BCF333C0843F99
:1048300021F480915D028E7F17C0853F21F4809125
:104840005D028D7F11C0863F21F480915D028B7FD8
:104850000BC0873F21F480915D02877F05C0883FB0
:1048600031F480915D028F7E80935D0213C08D3F95
:1048700021F480915B028E7F0BC08E3F21F48091EA
:104880005B028D7F05C08F3F29F480915B028B7F97
:1048900080935B0280915E0281110EC080915F0265
:1048A00081110AC080916002811106C0809161026D
:1048B000811102C010925C0208958DE592E00E9481
:1048C00011140E94F9209093590280935802089580
:1048D0001F93CF93DF9380915802909159020E94C9
:1048E0000521AC0190915C02992321F020913101C6
:1048F00030E006C020915A028AE0289F90011124DE
:104900004217530708F46EC080915E02C0915F02A7
:10491000D091600210916102811107C0C1115EC087
:10492000D1115CC011115AC05DC09F3F19F09F5F4B
:1049300090935C02181624F40E94EE2280935E028B
:1049400080915E0287FF05C00E94EE2281958093D0
:104950005E021C1624F40E94EE2280935F02809176
:104960005F0287FF05C00E94EE22819580935F025F
:1049700040915E02442379F030915F02332359F075
:1049800025EB4203A001112450935E023203C001C3
:10499000112490935F021D1624F40E943723809304
:1049A00060028091600287FF05C00E9437238195D5
:1049B00080936002111624F40E94372380936102D1
:1049C0008091610287FF05C00E9437238195809303
:1049D0006102DF91CF911F910C945D249F3F09F0FC
:1049E000A6CFAECFDF91CF911F910895EDE5F2E014
:1049F00085E0DF011D928A95E9F710925C02109222
:104A00005B0208958091820208950F931F93CF93C4
:104A1000DF9300D01F92CDB7DEB78C010E947D27B7
:104A2000823011F0843019F593E099831B830A8357
:104A30009093E9008FEF9091E800815095FD06C0BA
:104A400095ED9A95F1F700008111F5CF8091E8007E
:104A500085FF0DC040E050E063E070E0CE010196BC
:104A60000E949A278091E8008E778093E8000F904B
:104A70000F900F90DF91CF911F910F910895CF93D9
:104A8000DF9300D01F92CDB7DEB72091CB02243048
:104A900031F522E02983805891099B838A8383E042
:104AA0008093E9008FEF9091E800815095FD06C05A
:104AB00095ED9A95F1F700008111F5CF8091E8000E
:104AC00085FF0DC040E050E063E070E0CE0101964C
:104AD0000E949A278091E8008E778093E8000F90DB
:104AE0000F900F90DF91CF910895CF93DF93EC015A
:104AF0000E947D27823011F08430F9F482E08093A7
:104B0000E9009FEF8091E800915085FD06C085ED9A
:104B10008A95F1F700009111F5CF8091E80085FFAB
:104B20000CC040E050E065E070E0CE010E949A27A2
:104B30008091E8008E778093E800DF91CF9108950F
:104B4000CF93DF93EC010E947D27823019F08430EF
:104B500009F047C080913C018823E1F08091C502B3
:104B600087FF18C084E08093E9008FEF9091E80000
:104B7000815095FD06C095E19A95F1F700008111ED
:104B8000F5CF8091E80085FF2CC040E050E060E266
:104B900070E017C081E08093E9008FEF9091E8000A
:104BA000815095FD06C095ED9A95F1F700008111B1
:104BB000F5CF8091E80085FF14C040E050E068E048
:104BC00070E0CE010E949A278091E8008E77809352
:104BD000E80080E2FE01A2E6B2E001900D928A9523
:104BE000E1F7DF91CF9108958091CA02811109C048
:104BF0000E942F290E948C298091E200846080937A
:104C0000E20008951092CA020895089508950C9440
:104C1000C12042E061EC81E00E94A92842E061EC01
:104C200082E00E94A92842E061EC83E00E94A9286A
:104C300042E261EC84E00C94A9288091CD0283309B
:104C400009F455C030F4813071F0823009F48EC01F
:104C500008958A3009F47AC08B3009F460C0893035
:104C600009F09CC020C08091CC02813A09F096C026
:104C70008091E800877F8093E8008091D002909136
:104C8000D102892B21F460E282E692E003C060E069
:104C900080E090E070E00E94E5278091E8008B774B
:104CA0008093E80008958091CC02813209F076C0AB
:104CB0008091D0029091D102009719F0039709F0EA
:104CC0006DC08091E800877F8093E8008091E800C4
:104CD00082FD05C08091CB028111F8CF5FC0809129
:104CE000F100809382028091E8008B7753C080911D
:104CF000CC02813A09F052C08091D0029091D10249
:104D0000892B09F04BC08091E800877F8093E800F1
:104D10008091E80080FFFCCF80913C0136C08091FB
:104D2000CC028132D9F58091D0029091D102892BA9
:104D3000A9F58091E800877F8093E8000E94DE2833
:104D40008091CE0280933C010C947D198091CC021D
:104D5000813221F58091E800877F8093E8000E94EE
:104D6000DE288091CF028093830208958091CC0247
:104D7000813AA1F48091E800877F8093E8008091D8
:104D8000E80080FFFCCF809183028093F100809146
:104D9000E8008E778093E8000C94DE28089584B7AD
:104DA000877F84BF0FB6F894A895809160008861D2
:104DB00080936000109260000FBE80E880936100D5
:104DC000109261000E9449140E942F290E948C2990
:104DD0008091E20084608093E20078940E941B2C12
:104DE0000E944D1482E391E00E94F5138091CB0262
:104DF000853069F40E947E208091C9028823B1F336
:104E00000E94AC20882391F30E948427EFCF0E9458
:104E10005B140E943A12EACF0C940E27292F3327F5
:104E200023303105C9F064F42130310581F022309E
:104E3000310509F049C08DE690E02CEC36E048C021
:104E40002132310521F12232310571F13DC082E17B
:104E500090E029E337E03CC099278130910571F05B
:104E60002CF4892B89F5E8ECF6E00DC08230910531
:104E700041F0039749F5E4EAF6E005C0E6EBF6E019
:104E800002C0EAEAF6E0849190E09F0121C064301C
:104E90007105D0F4660F771FFB01E35AFE4F2081A6
:104EA000318189E090E014C06430710568F4FB0141
:104EB000EE0FFF1FEB5AFE4F20813181FB01EF5AAD
:104EC000FE4F808190E004C080E090E020E030E080
:104ED000FA013183208308950895CF93C82F0E944B
:104EE0006C27C0938402CF9108958091CB028430C7
:104EF00011F081E0089582E008958091840281118B
:104F000002C00C947527089580E189BD82E189BDB6
:104F100009B400FEFDCF8091D8008F7D8093D8002A
:104F20008091E00082608093E0008091E00081FD4C
:104F3000FCCF0895CF92DF92EF92FF920F931F93D1
:104F4000CF93DF93EC018B016A010E94FD28811150
:104F500033C0C114D10439F0F60180819181081B5E
:104F6000190BC80FD91FE12CF12C0115110519F1EE
:104F70008091E80085FD16C08091E8008E778093CF
:104F8000E800C114D10449F0F60180819181E80E56
:104F9000F91EF182E08285E00FC00E94FD2888237F
:104FA00021F30AC089918093F10001501109FFEFAC
:104FB000EF1AFF0ADACF80E0DF91CF911F910F91B6
:104FC000FF90EF90DF90CF9008952091D202309122
:104FD000D3022617370748F06115710539F420917F
:104FE000E8002E772093E80001C0B90140E0611588
:104FF0007105A9F12091CB02222309F443C0253089
:1050000009F442C02091E80023FD40C02091E8004F
:1050100022FD32C02091E80020FFE9CF4091F3004B
:105020002091F20030E0342BFC01CF0161157105B5
:1050300059F02830310540F481918093F10061509E
:1050400071092F5F3F4FF1CF41E02830310509F062
:1050500040E02091E8002E772093E800C8CF41116E
:10506000C9CF0AC08091CB02882361F0853061F0FE
:105070008091E80083FD0AC08091E80082FFF2CFB2
:1050800080E0089582E0089583E0089581E0089526
:105090002091D2023091D3022617370748F06115CC
:1050A000710539F42091E8002E772093E80001C0C3
:1050B000B901FC0120E06115710591F18091CB02ED
:1050C000882309F440C0853009F43FC08091E8008E
:1050D00083FD3DC08091E80082FD2FC08091E800F3
:1050E00080FFE9CF2091F3008091F20090E0922BB5
:1050F0006115710559F08830910540F42491209391
:10510000F1003196615071090196F2CF21E00897C4
:1051100009F020E08091E8008E778093E800CBCF03
:105120002111CCCF0AC08091CB02882361F0853059
:1051300061F08091E80083FD0AC08091E80082FF61
:10514000F2CF80E0089582E0089583E0089581E041
:105150000895982F973058F59093E900981739F0F3
:105160007091EC002091ED005091F00003C0242FCD
:10517000762F50E021FF19C03091EB003E7F309335
:10518000EB003091ED003D7F3093ED003091EB006E
:1051900031603093EB007093EC002093ED0050935E
:1051A000F0002091EE0027FF07C09F5FD3CF8F70E4
:1051B0008093E90081E0089580E008958091CC0219
:1051C00087FF11C08091E80082FD05C08091CB026D
:1051D0008111F8CF11C08091E8008B770BC08091CE
:1051E000CB02882349F08091E80080FFF8CF8091BE
:1051F000E8008E778093E80008952091E4003091D4
:10520000E50095E64091EC00842F817040FF22C0BC
:105210008091E80080FD1CC08091CB02882391F032
:10522000853091F08091EB0085FD10C04091E40045
:105230005091E5004217530729F39A01915011F755
:1052400084E0089582E0089583E0089581E0089560
:1052500080E008954091E80042FFDECF08950E946B
:105260009D290E94A529E0EEF0E080818160808385
:10527000E8EDF0E080818F77808319BCA7EDB0E086
:105280008C918E7F8C9380818F7E80831092CA0256
:1052900008950F931F93CF93DF930E949D290E943F
:1052A000A529C8EDD0E088818F77888388818068C0
:1052B000888388818F7D888319BC1092CB021092DD
:1052C000C7021092C9021092C80200EE10E0F80165
:1052D00080818B7F808388818160888342E060E069
:1052E00080E00E94A928E1EEF0E080818E7F80833B
:1052F000E2EEF0E08081816080838081886080833D
:10530000F80180818E7F8083888180618883DF912E
:10531000CF911F910F910895E8EDF0E080818F7E8D
:105320008083E7EDF0E080818160808384E082BF4C
:1053300081E08093CA020C944929E8EDF0E0808175
:105340008E7F80831092E20008951092DA0010920E
:10535000E10008951F920F920FB60F9211242F9320
:105360003F934F935F936F937F938F939F93AF93ED
:10537000BF93EF93FF938091E10082FF0BC0809178
:10538000E20082FF07C08091E1008B7F8093E10003
:105390000E941A2C8091DA0080FF1FC08091D800F3
:1053A00080FF1BC08091DA008E7F8093DA008091AD
:1053B000D90080FF0DC080E189BD82E189BD09B4BB
:1053C00000FEFDCF81E08093CB020E94F42505C052
:1053D00019BC1092CB020E9402268091E10080FF4E
:1053E00019C08091E20080FF15C08091E2008E7F9D
:1053F0008093E2008091E20080618093E2008091DE
:10540000D80080628093D80019BC85E08093CB02DD
:105410000E9406268091E10084FF30C08091E20066
:1054200084FF2CC080E189BD82E189BD09B400FE02
:10543000FDCF8091D8008F7D8093D8008091E100CE
:105440008F7E8093E1008091E2008F7E8093E20066
:105450008091E20081608093E2008091C7028823FE
:1054600011F084E007C08091E30087FD02C081E075
:1054700001C083E08093CB020E9407268091E10067
:1054800083FF29C08091E20083FF25C08091E10065
:10549000877F8093E10082E08093CB021092C70265
:1054A0008091E1008E7F8093E1008091E2008E7F09
:1054B0008093E2008091E20080618093E20042E00C
:1054C00060E080E00E94A9288091F00088608093CD
:1054D000F0000E940526FF91EF91BF91AF919F913F
:1054E0008F917F916F915F914F913F912F910F908D
:1054F0000FBE0F901F9018951F920F920FB60F922C
:1055000011242F933F934F935F936F937F938F93C8
:105510009F93AF93BF93CF93DF93EF93FF93C0918C
:10552000E900CF708091EC00D82FD17080FDD0E8D9
:105530001092E9008091F000877F8093F0007894CA
:105540000E94C02A1092E9008091F0008860809348
:10555000F000CD2BCF70C093E900FF91EF91DF9168
:10556000CF91BF91AF919F918F917F916F915F91FB
:105570004F913F912F910F900FBE0F901F90189554
:105580001F93CF93DF93CDB7DEB7AA970FB6F894EA
:10559000DEBF0FBECDBFECECF2E088E08E0F909145
:1055A000F10091938E13FBCF0E941D268091E8009D
:1055B00083FF28C18091CC029091CD02492F50E009
:1055C0004A30510508F01EC1FA01E556FF4F0C9410
:1055D000A72F803821F0823809F014C108C08091CB
:1055E000C8029091C902992389F082600FC080910E
:1055F000D0028F70873008F005C18093E900809158
:10560000EB0085FB882780F91092E9009091E80073
:10561000977F9093E8008093F1001092F100D0C042
:10562000282F2D7F09F0EEC0882319F0823061F019
:10563000E9C08091CE02813009F0E4C0933009F0D6
:1056400080E08093C9022EC08091CE0281112AC0D1
:105650008091D0028F702FEF280F263008F0D2C033
:105660008093E9002091EB0020FF1CC0933021F4CF
:105670008091EB00806214C09091EB009061909358
:10568000EB0021E030E0A90102C0440F551F8A95CC
:10569000E2F74093EA001092EA008091EB00886004
:1056A0008093EB001092E9008091E800877F80935F
:1056B000E8000E94DE28A6C08111A4C01091CE028D
:1056C0001F778091E3008078812B8093E3008091A5
:1056D000E800877F8093E8000E94DE288091E80040
:1056E00080FFFCCF8091E30080688093E30011117C
:1056F00002C082E001C083E08093CB0283C0805867
:10570000823008F07FC08091CE029091CF028C3D14
:1057100053E0950779F583E08A838AE289834FB75E
:10572000F894DE01139620E03EE051E2E32FF0E032
:1057300050935700E49120FF03C0E295EF703F5F64
:10574000EF708E2F90E0EA3010F0C79601C0C0963F
:105750008D939D932F5F243149F74FBF8091E800CF
:10576000877F8093E8006AE270E0CE0101960E9494
:10577000E52715C06091D0027091D102AE014F5F54
:105780005F4F0E940C27BC01892BE1F19091E8004A
:10579000977F9093E80089819A810E9448288091A0
:1057A000E8008B778093E8002DC0803859F5809110
:1057B000E800877F8093E8008091C7028093F10022
:1057C0008091E8008E7773CF81111CC09091CE023A
:1057D0009230C0F48091E800877F8093E800909336
:1057E000C7020E94DE288091C702811106C0809105
:1057F000E30087FD02C081E001C084E08093CB021A
:105800000E9409268091E80083FF0AC08091E80089
:10581000877F8093E8008091EB0080628093EB00AB
:10582000AA960FB6F894DEBF0FBECDBFDF91CF9121
:105830001F9108950895CF938091CB028823A1F002
:10584000C091E900CF709091EC00892F817090FD9C
:1058500080E8C82B1092E9008091E80083FD0E9447
:10586000C02ACF70C093E900CF9108955058BB274C
:10587000AA270E944E2C0C94F92D0E94EB2D38F093
:105880000E94F22D20F039F49F3F19F426F40C9475
:10589000C12D0EF4E095E7FB0C94BB2DE92F0E947F
:1058A0000A2E58F3BA17620773078407950720F08A
:1058B00079F4A6F50C942C2E0EF4E0950B2EBA2F4D
:1058C000A02D0B01B90190010C01CA01A001112406
:1058D000FF27591B99F0593F50F4503E68F11A16B2
:1058E000F040A22F232F342F4427585FF3CF469543
:1058F00037952795A795F0405395C9F77EF41F1665
:10590000BA0B620B730B840BBAF09150A1F0FF0F2E
:10591000BB1F661F771F881FC2F70EC0BA0F621F1A
:10592000731F841F48F4879577956795B795F7950A
:105930009E3F08F0B0CF9395880F08F09927EE0F9F
:105940009795879508950E94B72C0C94F92D0E9485
:10595000F22D58F00E94EB2D40F029F45F3F29F022
:105960000C94BB2D51110C942D2E0C94C12D0E9422
:105970000A2E68F39923B1F3552391F3951B550B28
:10598000BB27AA2762177307840738F09F5F5F4F12
:10599000220F331F441FAA1FA9F335D00E2E3AF051
:1059A000E0E832D091505040E695001CCAF72BD069
:1059B000FE2F29D0660F771F881FBB1F26173707BA
:1059C0004807AB07B0E809F0BB0B802DBF01FF27EC
:1059D00093585F4F3AF09E3F510578F00C94BB2DE1
:1059E0000C942D2E5F3FE4F3983ED4F38695779583
:1059F0006795B795F7959F5FC9F7880F911D9695A5
:105A0000879597F90895E1E0660F771F881FBB1F00
:105A1000621773078407BA0720F0621B730B840BAD
:105A2000BA0BEE1F88F7E095089529F416F00C9450
:105A3000BB2D0C942C2E0C94C12D0E94122EA8F379
:105A40009638A0F707F80F92E8942BE33AEA48EB70
:105A50005FE70E94BF2E0F920F920F924DB75EB775
:105A60000F920E94752EEAE4F1E00E94C42D4F913E
:105A70005F91EF91FF91E595EE1FFF1F49F0FE57F3
:105A8000E0684427EE0F441FFA95E1F74195550B66
:105A90000E943F2E0F9007FE0C94332E08950E9413
:105AA000122E88F09F5798F0B92F9927B751B0F070
:105AB000E1F0660F771F881F991F1AF0BA95C9F792
:105AC00014C0B13091F00E942C2EB1E008950C94D6
:105AD0002C2E672F782F8827B85F39F0B93FCCF389
